{
  "_format": "hh-sol-artifact-1",
  "contractName": "BatchTransactions",
  "sourceName": "contracts/BatchTransactions.sol",
  "abi": [
    {
      "inputs": [],
      "stateMutability": "nonpayable",
      "type": "constructor"
    },
    {
      "anonymous": false,
      "inputs": [
        {
          "indexed": true,
          "internalType": "uint256",
          "name": "batchId",
          "type": "uint256"
        },
        {
          "indexed": true,
          "internalType": "address",
          "name": "creator",
          "type": "address"
        }
      ],
      "name": "BatchCancelled",
      "type": "event"
    },
    {
      "anonymous": false,
      "inputs": [
        {
          "indexed": true,
          "internalType": "uint256",
          "name": "batchId",
          "type": "uint256"
        },
        {
          "indexed": true,
          "internalType": "address",
          "name": "creator",
          "type": "address"
        },
        {
          "indexed": false,
          "internalType": "uint256",
          "name": "transactionCount",
          "type": "uint256"
        },
        {
          "indexed": false,
          "internalType": "uint256",
          "name": "estimatedGas",
          "type": "uint256"
        }
      ],
      "name": "BatchCreated",
      "type": "event"
    },
    {
      "anonymous": false,
      "inputs": [
        {
          "indexed": true,
          "internalType": "uint256",
          "name": "batchId",
          "type": "uint256"
        },
        {
          "indexed": true,
          "internalType": "address",
          "name": "executor",
          "type": "address"
        },
        {
          "indexed": false,
          "internalType": "uint256",
          "name": "transactionCount",
          "type": "uint256"
        },
        {
          "indexed": false,
          "internalType": "uint256",
          "name": "totalGasUsed",
          "type": "uint256"
        },
        {
          "indexed": false,
          "internalType": "uint256",
          "name": "timestamp",
          "type": "uint256"
        },
        {
          "indexed": false,
          "internalType": "bool",
          "name": "success",
          "type": "bool"
        }
      ],
      "name": "BatchExecuted",
      "type": "event"
    },
    {
      "anonymous": false,
      "inputs": [
        {
          "indexed": true,
          "internalType": "address",
          "name": "previousOwner",
          "type": "address"
        },
        {
          "indexed": true,
          "internalType": "address",
          "name": "newOwner",
          "type": "address"
        }
      ],
      "name": "OwnershipTransferred",
      "type": "event"
    },
    {
      "anonymous": false,
      "inputs": [
        {
          "indexed": true,
          "internalType": "uint256",
          "name": "batchId",
          "type": "uint256"
        },
        {
          "indexed": true,
          "internalType": "uint256",
          "name": "transactionIndex",
          "type": "uint256"
        },
        {
          "indexed": true,
          "internalType": "address",
          "name": "target",
          "type": "address"
        },
        {
          "indexed": false,
          "internalType": "bool",
          "name": "success",
          "type": "bool"
        },
        {
          "indexed": false,
          "internalType": "bytes",
          "name": "returnData",
          "type": "bytes"
        }
      ],
      "name": "TransactionExecuted",
      "type": "event"
    },
    {
      "inputs": [],
      "name": "BATCH_EXECUTION_FEE",
      "outputs": [
        {
          "internalType": "uint256",
          "name": "",
          "type": "uint256"
        }
      ],
      "stateMutability": "view",
      "type": "function"
    },
    {
      "inputs": [],
      "name": "BATCH_TIMEOUT",
      "outputs": [
        {
          "internalType": "uint256",
          "name": "",
          "type": "uint256"
        }
      ],
      "stateMutability": "view",
      "type": "function"
    },
    {
      "inputs": [],
      "name": "GAS_LIMIT_MULTIPLIER",
      "outputs": [
        {
          "internalType": "uint256",
          "name": "",
          "type": "uint256"
        }
      ],
      "stateMutability": "view",
      "type": "function"
    },
    {
      "inputs": [],
      "name": "MAX_BATCH_VALUE",
      "outputs": [
        {
          "internalType": "uint256",
          "name": "",
          "type": "uint256"
        }
      ],
      "stateMutability": "view",
      "type": "function"
    },
    {
      "inputs": [],
      "name": "MAX_TRANSACTIONS_PER_BATCH",
      "outputs": [
        {
          "internalType": "uint256",
          "name": "",
          "type": "uint256"
        }
      ],
      "stateMutability": "view",
      "type": "function"
    },
    {
      "inputs": [
        {
          "internalType": "uint256",
          "name": "_batchId",
          "type": "uint256"
        },
        {
          "components": [
            {
              "internalType": "address",
              "name": "target",
              "type": "address"
            },
            {
              "internalType": "uint256",
              "name": "value",
              "type": "uint256"
            },
            {
              "internalType": "bytes",
              "name": "data",
              "type": "bytes"
            },
            {
              "internalType": "uint256",
              "name": "gasLimit",
              "type": "uint256"
            },
            {
              "internalType": "bool",
              "name": "isExecuted",
              "type": "bool"
            },
            {
              "internalType": "bool",
              "name": "success",
              "type": "bool"
            },
            {
              "internalType": "bytes",
              "name": "returnData",
              "type": "bytes"
            }
          ],
          "internalType": "struct BatchTransactions.Transaction",
          "name": "_transaction",
          "type": "tuple"
        }
      ],
      "name": "addTransactionToBatch",
      "outputs": [],
      "stateMutability": "nonpayable",
      "type": "function"
    },
    {
      "inputs": [
        {
          "internalType": "address",
          "name": "_executor",
          "type": "address"
        }
      ],
      "name": "authorizeExecutor",
      "outputs": [],
      "stateMutability": "nonpayable",
      "type": "function"
    },
    {
      "inputs": [
        {
          "internalType": "address",
          "name": "",
          "type": "address"
        }
      ],
      "name": "authorizedExecutors",
      "outputs": [
        {
          "internalType": "bool",
          "name": "",
          "type": "bool"
        }
      ],
      "stateMutability": "view",
      "type": "function"
    },
    {
      "inputs": [
        {
          "internalType": "uint256",
          "name": "",
          "type": "uint256"
        }
      ],
      "name": "batches",
      "outputs": [
        {
          "internalType": "uint256",
          "name": "id",
          "type": "uint256"
        },
        {
          "internalType": "address",
          "name": "creator",
          "type": "address"
        },
        {
          "internalType": "uint256",
          "name": "createdAt",
          "type": "uint256"
        },
        {
          "internalType": "uint256",
          "name": "executedAt",
          "type": "uint256"
        },
        {
          "internalType": "bool",
          "name": "isExecuted",
          "type": "bool"
        },
        {
          "internalType": "bool",
          "name": "isCancelled",
          "type": "bool"
        },
        {
          "internalType": "uint256",
          "name": "totalGasUsed",
          "type": "uint256"
        },
        {
          "internalType": "uint256",
          "name": "estimatedGas",
          "type": "uint256"
        }
      ],
      "stateMutability": "view",
      "type": "function"
    },
    {
      "inputs": [
        {
          "internalType": "uint256",
          "name": "_batchId",
          "type": "uint256"
        }
      ],
      "name": "cancelBatch",
      "outputs": [],
      "stateMutability": "nonpayable",
      "type": "function"
    },
    {
      "inputs": [
        {
          "components": [
            {
              "internalType": "address",
              "name": "target",
              "type": "address"
            },
            {
              "internalType": "uint256",
              "name": "value",
              "type": "uint256"
            },
            {
              "internalType": "bytes",
              "name": "data",
              "type": "bytes"
            },
            {
              "internalType": "uint256",
              "name": "gasLimit",
              "type": "uint256"
            },
            {
              "internalType": "bool",
              "name": "isExecuted",
              "type": "bool"
            },
            {
              "internalType": "bool",
              "name": "success",
              "type": "bool"
            },
            {
              "internalType": "bytes",
              "name": "returnData",
              "type": "bytes"
            }
          ],
          "internalType": "struct BatchTransactions.Transaction[]",
          "name": "_transactions",
          "type": "tuple[]"
        }
      ],
      "name": "createBatch",
      "outputs": [
        {
          "internalType": "uint256",
          "name": "batchId",
          "type": "uint256"
        }
      ],
      "stateMutability": "payable",
      "type": "function"
    },
    {
      "inputs": [],
      "name": "emergencyPause",
      "outputs": [],
      "stateMutability": "nonpayable",
      "type": "function"
    },
    {
      "inputs": [
        {
          "internalType": "uint256",
          "name": "_batchId",
          "type": "uint256"
        }
      ],
      "name": "executeBatch",
      "outputs": [],
      "stateMutability": "nonpayable",
      "type": "function"
    },
    {
      "inputs": [
        {
          "components": [
            {
              "internalType": "address",
              "name": "target",
              "type": "address"
            },
            {
              "internalType": "uint256",
              "name": "value",
              "type": "uint256"
            },
            {
              "internalType": "bytes",
              "name": "data",
              "type": "bytes"
            },
            {
              "internalType": "uint256",
              "name": "gasLimit",
              "type": "uint256"
            },
            {
              "internalType": "bool",
              "name": "isExecuted",
              "type": "bool"
            },
            {
              "internalType": "bool",
              "name": "success",
              "type": "bool"
            },
            {
              "internalType": "bytes",
              "name": "returnData",
              "type": "bytes"
            }
          ],
          "internalType": "struct BatchTransactions.Transaction",
          "name": "_transaction",
          "type": "tuple"
        }
      ],
      "name": "executeSingleTransaction",
      "outputs": [
        {
          "internalType": "bytes",
          "name": "returnData",
          "type": "bytes"
        }
      ],
      "stateMutability": "nonpayable",
      "type": "function"
    },
    {
      "inputs": [
        {
          "internalType": "uint256",
          "name": "_batchId",
          "type": "uint256"
        }
      ],
      "name": "getBatch",
      "outputs": [
        {
          "internalType": "uint256",
          "name": "id",
          "type": "uint256"
        },
        {
          "internalType": "address",
          "name": "creator",
          "type": "address"
        },
        {
          "internalType": "uint256",
          "name": "transactionCount",
          "type": "uint256"
        },
        {
          "internalType": "uint256",
          "name": "createdAt",
          "type": "uint256"
        },
        {
          "internalType": "uint256",
          "name": "executedAt",
          "type": "uint256"
        },
        {
          "internalType": "bool",
          "name": "isExecuted",
          "type": "bool"
        },
        {
          "internalType": "bool",
          "name": "isCancelled",
          "type": "bool"
        },
        {
          "internalType": "uint256",
          "name": "totalGasUsed",
          "type": "uint256"
        },
        {
          "internalType": "uint256",
          "name": "estimatedGas",
          "type": "uint256"
        }
      ],
      "stateMutability": "view",
      "type": "function"
    },
    {
      "inputs": [
        {
          "internalType": "address",
          "name": "_user",
          "type": "address"
        }
      ],
      "name": "getGasOptimizationStats",
      "outputs": [
        {
          "components": [
            {
              "internalType": "uint256",
              "name": "originalGas",
              "type": "uint256"
            },
            {
              "internalType": "uint256",
              "name": "optimizedGas",
              "type": "uint256"
            },
            {
              "internalType": "uint256",
              "name": "savings",
              "type": "uint256"
            },
            {
              "internalType": "uint256",
              "name": "savingsPercentage",
              "type": "uint256"
            }
          ],
          "internalType": "struct BatchTransactions.GasOptimization",
          "name": "",
          "type": "tuple"
        }
      ],
      "stateMutability": "view",
      "type": "function"
    },
    {
      "inputs": [],
      "name": "getTotalBatchCount",
      "outputs": [
        {
          "internalType": "uint256",
          "name": "",
          "type": "uint256"
        }
      ],
      "stateMutability": "view",
      "type": "function"
    },
    {
      "inputs": [
        {
          "internalType": "uint256",
          "name": "_batchId",
          "type": "uint256"
        },
        {
          "internalType": "uint256",
          "name": "_transactionIndex",
          "type": "uint256"
        }
      ],
      "name": "getTransaction",
      "outputs": [
        {
          "internalType": "address",
          "name": "target",
          "type": "address"
        },
        {
          "internalType": "uint256",
          "name": "value",
          "type": "uint256"
        },
        {
          "internalType": "bytes",
          "name": "data",
          "type": "bytes"
        },
        {
          "internalType": "uint256",
          "name": "gasLimit",
          "type": "uint256"
        },
        {
          "internalType": "bool",
          "name": "isExecuted",
          "type": "bool"
        },
        {
          "internalType": "bool",
          "name": "success",
          "type": "bool"
        },
        {
          "internalType": "bytes",
          "name": "returnData",
          "type": "bytes"
        }
      ],
      "stateMutability": "view",
      "type": "function"
    },
    {
      "inputs": [
        {
          "internalType": "address",
          "name": "_user",
          "type": "address"
        },
        {
          "internalType": "uint256",
          "name": "_offset",
          "type": "uint256"
        },
        {
          "internalType": "uint256",
          "name": "_limit",
          "type": "uint256"
        }
      ],
      "name": "getUserBatches",
      "outputs": [
        {
          "internalType": "uint256[]",
          "name": "",
          "type": "uint256[]"
        }
      ],
      "stateMutability": "view",
      "type": "function"
    },
    {
      "inputs": [],
      "name": "owner",
      "outputs": [
        {
          "internalType": "address",
          "name": "",
          "type": "address"
        }
      ],
      "stateMutability": "view",
      "type": "function"
    },
    {
      "inputs": [
        {
          "internalType": "uint256",
          "name": "_batchId",
          "type": "uint256"
        },
        {
          "internalType": "uint256",
          "name": "_transactionIndex",
          "type": "uint256"
        }
      ],
      "name": "removeTransactionFromBatch",
      "outputs": [],
      "stateMutability": "nonpayable",
      "type": "function"
    },
    {
      "inputs": [],
      "name": "renounceOwnership",
      "outputs": [],
      "stateMutability": "nonpayable",
      "type": "function"
    },
    {
      "inputs": [
        {
          "internalType": "address",
          "name": "_executor",
          "type": "address"
        }
      ],
      "name": "revokeExecutor",
      "outputs": [],
      "stateMutability": "nonpayable",
      "type": "function"
    },
    {
      "inputs": [
        {
          "internalType": "address",
          "name": "newOwner",
          "type": "address"
        }
      ],
      "name": "transferOwnership",
      "outputs": [],
      "stateMutability": "nonpayable",
      "type": "function"
    },
    {
      "inputs": [
        {
          "internalType": "address",
          "name": "",
          "type": "address"
        },
        {
          "internalType": "uint256",
          "name": "",
          "type": "uint256"
        }
      ],
      "name": "userBatches",
      "outputs": [
        {
          "internalType": "uint256",
          "name": "",
          "type": "uint256"
        }
      ],
      "stateMutability": "view",
      "type": "function"
    },
    {
      "inputs": [
        {
          "internalType": "address",
          "name": "",
          "type": "address"
        }
      ],
      "name": "userGasSavings",
      "outputs": [
        {
          "internalType": "uint256",
          "name": "",
          "type": "uint256"
        }
      ],
      "stateMutability": "view",
      "type": "function"
    },
    {
      "inputs": [],
      "name": "withdraw",
      "outputs": [],
      "stateMutability": "nonpayable",
      "type": "function"
    }
  ],
  "bytecode": "0x608060405234801561001057600080fd5b50600160005561001f3361004c565b61002d600280546001019055565b336000908152600660205260409020805460ff1916600117905561009e565b600180546001600160a01b038381166001600160a01b0319831681179093556040519116919082907f8be0079c531659141344cd1fd0a4f28419497f9722a3daafe3b4186f6b6457e090600090a35050565b61288580620000ae6000396000f3fe60806040526004361061019c5760003560e01c8063715018a6116100ec578063b32c4d8d1161008a578063d5fb040f11610064578063d5fb040f146105a3578063f2fde38b146105bf578063f5f02a07146105df578063f8b94e9e1461060c57600080fd5b8063b32c4d8d146104af578063c265f31614610563578063d51012511461058357600080fd5b8063771fcf5b116100c6578063771fcf5b1461040957806383f687d31461041f5780638da5cb5b14610472578063a027a0571461049a57600080fd5b8063715018a6146103ae5780637303f6ce146103c357806376dbd883146103f657600080fd5b8063475d1ba31161015957806351858e271161013357806351858e27146102c95780635ac44282146102de578063643590f91461034e578063679d86a71461036e57600080fd5b8063475d1ba31461027a5780634bc02e461461029a5780634d88d871146102af57600080fd5b80630a24cf5f146101a15780630edeca09146101c35780630f2bf0d8146101eb57806310d6c6cd14610218578063273c1d07146102455780633ccfd60b14610265575b600080fd5b3480156101ad57600080fd5b506101c16101bc366004611e27565b61062c565b005b3480156101cf57600080fd5b506101d8607881565b6040519081526020015b60405180910390f35b3480156101f757600080fd5b5061020b610206366004611e5c565b610758565b6040516101e29190611e8f565b34801561022457600080fd5b50610238610233366004612087565b6108b6565b6040516101e29190612114565b34801561025157600080fd5b506101c1610260366004612127565b6109d6565b34801561027157600080fd5b506101c1610cba565b34801561028657600080fd5b506101d8610295366004612149565b610dc5565b3480156102a657600080fd5b506101d8610df6565b3480156102bb57600080fd5b506101d86502ba7def300081565b3480156102d557600080fd5b506101c1610e12565b3480156102ea57600080fd5b506102fe6102f9366004611e27565b610e1a565b60408051998a526001600160a01b0390981660208a01529688019590955260608701939093526080860191909152151560a0850152151560c084015260e0830152610100820152610120016101e2565b34801561035a57600080fd5b506101c1610369366004612173565b610eb9565b34801561037a57600080fd5b5061039e610389366004612173565b60066020526000908152604090205460ff1681565b60405190151581526020016101e2565b3480156103ba57600080fd5b506101c1610ee5565b3480156103cf57600080fd5b506103e36103de366004612127565b610ef7565b6040516101e2979695949392919061218e565b6101d86104043660046121eb565b611125565b34801561041557600080fd5b506101d8610e1081565b34801561042b57600080fd5b5061043f61043a366004612173565b6114ce565b6040516101e291908151815260208083015190820152604080830151908201526060918201519181019190915260800190565b34801561047e57600080fd5b506001546040516001600160a01b0390911681526020016101e2565b3480156104a657600080fd5b506101d8606481565b3480156104bb57600080fd5b5061051c6104ca366004611e27565b6003602081905260009182526040909120805460018201549282015460048301546005840154600685015460079095015493956001600160a01b0316949293919260ff80831693610100909304169188565b604080519889526001600160a01b03909716602089015295870194909452606086019290925215156080850152151560a084015260c083015260e0820152610100016101e2565b34801561056f57600080fd5b506101c161057e3660046122ae565b611560565b34801561058f57600080fd5b506101c161059e366004612173565b61183b565b3480156105af57600080fd5b506101d8678ac7230489e8000081565b3480156105cb57600080fd5b506101c16105da366004612173565b611864565b3480156105eb57600080fd5b506101d86105fa366004612173565b60056020526000908152604090205481565b34801561061857600080fd5b506101c1610627366004611e27565b6118dd565b8060008111801561063f57506002548111155b6106645760405162461bcd60e51b815260040161065b906122f5565b60405180910390fd5b600082815260036020526040902060050154829060ff16156106985760405162461bcd60e51b815260040161065b9061231f565b600081815260036020526040902060050154610100900460ff16156106cf5760405162461bcd60e51b815260040161065b9061234f565b60008381526003602052604090206001015483906001600160a01b0316331461070a5760405162461bcd60e51b815260040161065b90612378565b600084815260036020526040808220600501805461ff00191661010017905551339186917f839b828a70e689fbcd4e555a39b6eb75b3a2c8cacb4f7ad0f492d77d1d2880ee9190a350505050565b6001600160a01b03831660009081526004602090815260408083208054825181850281018501909352808352606094938301828280156107b757602002820191906000526020600020905b8154815260200190600101908083116107a3575b50508351939450505081861090506107e157505060408051600081526020810190915290506108af565b60006107ed85876123d8565b9050818111156107fa5750805b600061080687836123f1565b67ffffffffffffffff81111561081e5761081e611ed3565b604051908082528060200260200182016040528015610847578160200160208202803683370190505b509050865b828110156108a85784818151811061086657610866612404565b602002602001015182898361087b91906123f1565b8151811061088b5761088b612404565b6020908102919091010152806108a08161241a565b91505061084c565b5093505050505b9392505050565b60603330146109135760405162461bcd60e51b8152602060048201526024808201527f4f6e6c7920636f6e74726163742063616e2063616c6c20746869732066756e636044820152633a34b7b760e11b606482015260840161065b565b60008083600001516001600160a01b0316846020015185606001519086604001516040516109419190612433565b600060405180830381858888f193505050503d806000811461097f576040519150601f19603f3d011682016040523d82523d6000602084013e610984565b606091505b5091509150816108af5760405162461bcd60e51b815260206004820152601c60248201527f5472616e73616374696f6e20657865637574696f6e206661696c656400000000604482015260640161065b565b816000811180156109e957506002548111155b610a055760405162461bcd60e51b815260040161065b906122f5565b600083815260036020526040902060050154839060ff1615610a395760405162461bcd60e51b815260040161065b9061231f565b600081815260036020526040902060050154610100900460ff1615610a705760405162461bcd60e51b815260040161065b9061234f565b60008481526003602052604090206001015484906001600160a01b03163314610aab5760405162461bcd60e51b815260040161065b90612378565b600085815260036020526040902060028101548510610b085760405162461bcd60e51b8152602060048201526019602482015278092dcecc2d8d2c840e8e4c2dce6c2c6e8d2dedc40d2dcc8caf603b1b604482015260640161065b565b6000816002018681548110610b1f57610b1f612404565b906000526020600020906006020190508060030154826007016000828254610b4791906123f1565b9091555050600282018054610b5e906001906123f1565b81548110610b6e57610b6e612404565b9060005260206000209060060201826002018781548110610b9157610b91612404565b60009182526020909120825460069092020180546001600160a01b0319166001600160a01b0390921691909117815560018083015490820155600280820190610bdc908401826124d8565b506003828101549082015560048083018054918301805460ff938416151560ff19821681178355925461010090819004909416151590930261ff001990921661ffff1990931692909217179055600580820190610c3b908401826124d8565b50505060028201805480610c5157610c516125b9565b60008281526020812060066000199093019283020180546001600160a01b03191681556001810182905590610c896002830182611dd9565b60006003830181905560048301805461ffff19169055610cad906005840190611dd9565b5050905550505050505050565b610cc2611cd4565b610cca611d2e565b4780610d115760405162461bcd60e51b81526020600482015260166024820152754e6f2062616c616e636520746f20776974686472617760501b604482015260640161065b565b6000610d256001546001600160a01b031690565b6001600160a01b03168260405160006040518083038185875af1925050503d8060008114610d6f576040519150601f19603f3d011682016040523d82523d6000602084013e610d74565b606091505b5050905080610db75760405162461bcd60e51b815260206004820152600f60248201526e15da5d1a191c985dc819985a5b1959608a1b604482015260640161065b565b5050610dc36001600055565b565b60046020528160005260406000208181548110610de157600080fd5b90600052602060002001600091509150505481565b60006001610e0360025490565b610e0d91906123f1565b905090565b610dc3611cd4565b600080600080600080600080600089600081118015610e3b57506002548111155b610e575760405162461bcd60e51b815260040161065b906122f5565b5050506000978852505060036020819052604090962080546001820154600283015498830154600484015460058501546006860154600790960154949c6001600160a01b039094169b9a50919850965060ff8082169650610100909104169350565b610ec1611cd4565b6001600160a01b03166000908152600660205260409020805460ff19166001179055565b610eed611cd4565b610dc36000611d87565b60008060606000806000606088600081118015610f1657506002548111155b610f325760405162461bcd60e51b815260040161065b906122f5565b60008a815260036020526040902060028101548a10610f8f5760405162461bcd60e51b8152602060048201526019602482015278092dcecc2d8d2c840e8e4c2dce6c2c6e8d2dedc40d2dcc8caf603b1b604482015260640161065b565b6000816002018b81548110610fa657610fa6612404565b6000918252602090912060069091020180546001820154600383015460048401546002850180549596506001600160a01b039094169492939260ff808316926101009004169060058801908590610ffc9061244f565b80601f01602080910402602001604051908101604052809291908181526020018280546110289061244f565b80156110755780601f1061104a57610100808354040283529160200191611075565b820191906000526020600020905b81548152906001019060200180831161105857829003601f168201915b505050505094508080546110889061244f565b80601f01602080910402602001604051908101604052809291908181526020018280546110b49061244f565b80156111015780601f106110d657610100808354040283529160200191611101565b820191906000526020600020905b8154815290600101906020018083116110e457829003601f168201915b50505050509050995099509950995099509950995050505092959891949750929550565b6000808251116111775760405162461bcd60e51b815260206004820152601860248201527f4e6f207472616e73616374696f6e732070726f76696465640000000000000000604482015260640161065b565b6064825111156111c15760405162461bcd60e51b8152602060048201526015602482015274546f6f206d616e79207472616e73616374696f6e7360581b604482015260640161065b565b6502ba7def30003410156112175760405162461bcd60e51b815260206004820152601a60248201527f496e73756666696369656e7420657865637574696f6e20666565000000000000604482015260640161065b565b506002805460018101909155600081815260036020819052604082208381556001810180546001600160a01b03191633179055429181019190915560058101805461ffff191690559080805b855181101561140e57600086828151811061128057611280612404565b602090810291909101015180519091506001600160a01b03166112de5760405162461bcd60e51b8152602060048201526016602482015275496e76616c696420746172676574206164647265737360501b604482015260640161065b565b60008160600151116113265760405162461bcd60e51b8152602060048201526011602482015270125b9d985b1a590819d85cc81b1a5b5a5d607a1b604482015260640161065b565b602081015161133590856123d8565b935080606001518361134791906123d8565b60028681018054600180820183556000928352602092839020865160069093020180546001600160a01b0319166001600160a01b0390931692909217825591850151918101919091556040840151929550839290918201906113a990826125cf565b5060608201516003820155608082015160048201805460a085015115156101000261ff00199315159390931661ffff199091161791909117905560c082015160058201906113f790826125cf565b5050505080806114069061241a565b915050611263565b50678ac7230489e8000082111561145e5760405162461bcd60e51b8152602060048201526014602482015273084c2e8c6d040ecc2d8eaca40e8dede40d0d2ced60631b604482015260640161065b565b600783018190553360008181526004602090815260408083208054600181018255908452928290209092018790558751825190815290810184905286917fb46ab6677d4983bd3f65644c6ed72b9157cdc869b926f9f3f8c76242251c1855910160405180910390a3505050919050565b6114f96040518060800160405280600081526020016000815260200160008152602001600081525090565b6001600160a01b038216600090815260056020908152604080832054600490925282205490918161152b576000611535565b6115358284612689565b5050604080516080810182526000808252602082018190529181019390935260608301525092915050565b8160008111801561157357506002548111155b61158f5760405162461bcd60e51b815260040161065b906122f5565b600083815260036020526040902060050154839060ff16156115c35760405162461bcd60e51b815260040161065b9061231f565b600081815260036020526040902060050154610100900460ff16156115fa5760405162461bcd60e51b815260040161065b9061234f565b60008481526003602052604090206001015484906001600160a01b031633146116355760405162461bcd60e51b815260040161065b90612378565b835184906001600160a01b03166116875760405162461bcd60e51b8152602060048201526016602482015275496e76616c696420746172676574206164647265737360501b604482015260640161065b565b60008160600151116116cf5760405162461bcd60e51b8152602060048201526011602482015270125b9d985b1a590819d85cc81b1a5b5a5d607a1b604482015260640161065b565b45816060015111156117185760405162461bcd60e51b815260206004820152601260248201527108ec2e640d8d2dad2e840e8dede40d0d2ced60731b604482015260640161065b565b600086815260036020526040902060028101546064116117675760405162461bcd60e51b815260206004820152600a60248201526910985d18da08199d5b1b60b21b604482015260640161065b565b600281810180546001808201835560009283526020928390208a5160069093020180546001600160a01b0319166001600160a01b039093169290921782559189015191810191909155604088015188928201906117c490826125cf565b5060608201516003820155608082015160048201805460a085015115156101000261ff00199315159390931661ffff199091161791909117905560c0820151600582019061181290826125cf565b505050856060015181600701600082825461182d91906123d8565b909155505050505050505050565b611843611cd4565b6001600160a01b03166000908152600660205260409020805460ff19169055565b61186c611cd4565b6001600160a01b0381166118d15760405162461bcd60e51b815260206004820152602660248201527f4f776e61626c653a206e6577206f776e657220697320746865207a65726f206160448201526564647265737360d01b606482015260840161065b565b6118da81611d87565b50565b6118e5611d2e565b806000811180156118f857506002548111155b6119145760405162461bcd60e51b815260040161065b906122f5565b600082815260036020526040902060050154829060ff16156119485760405162461bcd60e51b815260040161065b9061231f565b600081815260036020526040902060050154610100900460ff161561197f5760405162461bcd60e51b815260040161065b9061234f565b3360009081526006602052604090205460ff16806119a757506001546001600160a01b031633145b6119fd5760405162461bcd60e51b815260206004820152602160248201527f4e6f7420617574686f72697a656420746f2065786563757465206261746368656044820152607360f81b606482015260840161065b565b600083815260036020819052604090912090810154611a1f90610e10906123d8565b421115611a5e5760405162461bcd60e51b815260206004820152600d60248201526c10985d18da08195e1c1a5c9959609a1b604482015260640161065b565b60005a90506000805b6002840154811015611bdb576000846002018281548110611a8a57611a8a612404565b60009182526020909120600690910201600481015490915060ff1615611ab05750611bc9565b6040516310d6c6cd60e01b815260009060609030906310d6c6cd90611ad9908690600401612728565b6000604051808303816000875af1925050508015611b1957506040513d6000823e601f3d908101601f19168201604052611b1691908101906127bd565b60015b611b355750506040805160208101909152600080825290611b3c565b6001925090505b6004830180548315156101000261ffff1990911617600117905560058301611b6482826125cf565b508115611b795784611b758161241a565b9550505b82546040516001600160a01b039091169085908c907f1edbf278f4a8aa491d2cdf03e21e40d1868e6024d7c744c33ad51c363cf9eb0d90611bbd9087908790612834565b60405180910390a45050505b80611bd38161241a565b915050611a67565b5060005a611be990846123f1565b6006850181905542600486015560058501805460ff191660011790556007850154909150816000818311611c1e576000611c28565b611c2882846123f1565b90508015611c625760018701546001600160a01b031660009081526005602052604081208054839290611c5c9084906123d8565b90915550505b60018701546002880154604080518281526020810188905242818301529188146060830152516001600160a01b03909216918c917f4f6942cc0629ca402439368854684c34d1d2417f53f2d1f5a4526e86cb70df93919081900360800190a35050505050505050506118da6001600055565b6001546001600160a01b03163314610dc35760405162461bcd60e51b815260206004820181905260248201527f4f776e61626c653a2063616c6c6572206973206e6f7420746865206f776e6572604482015260640161065b565b600260005403611d805760405162461bcd60e51b815260206004820152601f60248201527f5265656e7472616e637947756172643a207265656e7472616e742063616c6c00604482015260640161065b565b6002600055565b600180546001600160a01b038381166001600160a01b0319831681179093556040519116919082907f8be0079c531659141344cd1fd0a4f28419497f9722a3daafe3b4186f6b6457e090600090a35050565b508054611de59061244f565b6000825580601f10611df5575050565b601f0160209004906000526020600020908101906118da91905b80821115611e235760008155600101611e0f565b5090565b600060208284031215611e3957600080fd5b5035919050565b80356001600160a01b0381168114611e5757600080fd5b919050565b600080600060608486031215611e7157600080fd5b611e7a84611e40565b95602085013595506040909401359392505050565b6020808252825182820181905260009190848201906040850190845b81811015611ec757835183529284019291840191600101611eab565b50909695505050505050565b634e487b7160e01b600052604160045260246000fd5b60405160e0810167ffffffffffffffff81118282101715611f0c57611f0c611ed3565b60405290565b604051601f8201601f1916810167ffffffffffffffff81118282101715611f3b57611f3b611ed3565b604052919050565b600067ffffffffffffffff821115611f5d57611f5d611ed3565b50601f01601f191660200190565b600082601f830112611f7c57600080fd5b8135611f8f611f8a82611f43565b611f12565b818152846020838601011115611fa457600080fd5b816020850160208301376000918101602001919091529392505050565b80358015158114611e5757600080fd5b600060e08284031215611fe357600080fd5b611feb611ee9565b9050611ff682611e40565b815260208201356020820152604082013567ffffffffffffffff8082111561201d57600080fd5b61202985838601611f6b565b60408401526060840135606084015261204460808501611fc1565b608084015261205560a08501611fc1565b60a084015260c084013591508082111561206e57600080fd5b5061207b84828501611f6b565b60c08301525092915050565b60006020828403121561209957600080fd5b813567ffffffffffffffff8111156120b057600080fd5b6120bc84828501611fd1565b949350505050565b60005b838110156120df5781810151838201526020016120c7565b50506000910152565b600081518084526121008160208601602086016120c4565b601f01601f19169290920160200192915050565b6020815260006108af60208301846120e8565b6000806040838503121561213a57600080fd5b50508035926020909101359150565b6000806040838503121561215c57600080fd5b61216583611e40565b946020939093013593505050565b60006020828403121561218557600080fd5b6108af82611e40565b60018060a01b038816815286602082015260e0604082015260006121b560e08301886120e8565b866060840152851515608084015284151560a084015282810360c08401526121dd81856120e8565b9a9950505050505050505050565b600060208083850312156121fe57600080fd5b823567ffffffffffffffff8082111561221657600080fd5b818501915085601f83011261222a57600080fd5b81358181111561223c5761223c611ed3565b8060051b61224b858201611f12565b918252838101850191858101908984111561226557600080fd5b86860192505b838310156122a1578235858111156122835760008081fd5b6122918b89838a0101611fd1565b835250918601919086019061226b565b9998505050505050505050565b600080604083850312156122c157600080fd5b82359150602083013567ffffffffffffffff8111156122df57600080fd5b6122eb85828601611fd1565b9150509250929050565b60208082526010908201526f125b9d985b1a590818985d18da08125160821b604082015260600190565b60208082526016908201527510985d18da08185b1c9958591e48195e1958dd5d195960521b604082015260600190565b6020808252600f908201526e10985d18da0818d85b98d95b1b1959608a1b604082015260600190565b6020808252602a908201527f4f6e6c792062617463682063726561746f722063616e20706572666f726d20746040820152693434b99030b1ba34b7b760b11b606082015260800190565b634e487b7160e01b600052601160045260246000fd5b808201808211156123eb576123eb6123c2565b92915050565b818103818111156123eb576123eb6123c2565b634e487b7160e01b600052603260045260246000fd5b60006001820161242c5761242c6123c2565b5060010190565b600082516124458184602087016120c4565b9190910192915050565b600181811c9082168061246357607f821691505b60208210810361248357634e487b7160e01b600052602260045260246000fd5b50919050565b601f8211156124d357600081815260208120601f850160051c810160208610156124b05750805b601f850160051c820191505b818110156124cf578281556001016124bc565b5050505b505050565b8181036124e3575050565b6124ed825461244f565b67ffffffffffffffff81111561250557612505611ed3565b61251981612513845461244f565b84612489565b6000601f82116001811461254d57600083156125355750848201545b600019600385901b1c1916600184901b1784556125b2565b600085815260209020601f19841690600086815260209020845b838110156125875782860154825560019586019590910190602001612567565b50858310156125a55781850154600019600388901b60f8161c191681555b50505060018360011b0184555b5050505050565b634e487b7160e01b600052603160045260246000fd5b815167ffffffffffffffff8111156125e9576125e9611ed3565b6125f781612513845461244f565b602080601f83116001811461262c57600084156126145750858301515b600019600386901b1c1916600185901b1785556124cf565b600085815260208120601f198616915b8281101561265b5788860151825594840194600190910190840161263c565b50858210156126795787850151600019600388901b60f8161c191681555b5050505050600190811b01905550565b6000826126a657634e487b7160e01b600052601260045260246000fd5b500490565b600081546126b88161244f565b8085526020600183811680156126d557600181146126ef5761271d565b60ff1985168884015283151560051b88018301955061271d565b866000528260002060005b858110156127155781548a82018601529083019084016126fa565b890184019650505b505050505092915050565b602081526127516020820161274484546001600160a01b031690565b6001600160a01b03169052565b6001820154604082015260e0606082015260006127756101008301600285016126ab565b60038401546080840152600484015460ff8116151560a08501526127a360c0850160ff8360081c1615159052565b50828103601f190160e08401526120bc81600586016126ab565b6000602082840312156127cf57600080fd5b815167ffffffffffffffff8111156127e657600080fd5b8201601f810184136127f757600080fd5b8051612805611f8a82611f43565b81815285602083850101111561281a57600080fd5b61282b8260208301602086016120c4565b95945050505050565b82151581526040602082015260006120bc60408301846120e856fea2646970667358221220cc32bb458357c1e8ce87bc23324af955d04af0ec2ef20fd893de54eeb4019d5d64736f6c63430008130033",
  "linkReferences": {},
  "deployedLinkReferences": {}
}