{
  "_format": "hh-sol-artifact-1",
  "contractName": "MessageStorage",
  "sourceName": "contracts/MessageStorage.sol",
  "abi": [
    {
      "inputs": [],
      "stateMutability": "nonpayable",
      "type": "constructor"
    },
    {
      "anonymous": false,
      "inputs": [
        {
          "indexed": true,
          "internalType": "uint256",
          "name": "messageId",
          "type": "uint256"
        },
        {
          "indexed": true,
          "internalType": "address",
          "name": "deleter",
          "type": "address"
        }
      ],
      "name": "MessageDeleted",
      "type": "event"
    },
    {
      "anonymous": false,
      "inputs": [
        {
          "indexed": true,
          "internalType": "uint256",
          "name": "messageId",
          "type": "uint256"
        },
        {
          "indexed": true,
          "internalType": "address",
          "name": "requester",
          "type": "address"
        },
        {
          "indexed": false,
          "internalType": "string",
          "name": "ipfsHash",
          "type": "string"
        }
      ],
      "name": "MessageRetrieved",
      "type": "event"
    },
    {
      "anonymous": false,
      "inputs": [
        {
          "indexed": true,
          "internalType": "uint256",
          "name": "messageId",
          "type": "uint256"
        },
        {
          "indexed": true,
          "internalType": "address",
          "name": "sender",
          "type": "address"
        },
        {
          "indexed": false,
          "internalType": "string",
          "name": "ipfsHash",
          "type": "string"
        },
        {
          "indexed": false,
          "internalType": "uint256",
          "name": "timestamp",
          "type": "uint256"
        }
      ],
      "name": "MessageStored",
      "type": "event"
    },
    {
      "anonymous": false,
      "inputs": [
        {
          "indexed": true,
          "internalType": "address",
          "name": "previousOwner",
          "type": "address"
        },
        {
          "indexed": true,
          "internalType": "address",
          "name": "newOwner",
          "type": "address"
        }
      ],
      "name": "OwnershipTransferred",
      "type": "event"
    },
    {
      "anonymous": false,
      "inputs": [
        {
          "indexed": true,
          "internalType": "address",
          "name": "user",
          "type": "address"
        },
        {
          "indexed": false,
          "internalType": "uint256",
          "name": "newQuota",
          "type": "uint256"
        }
      ],
      "name": "StorageQuotaUpdated",
      "type": "event"
    },
    {
      "inputs": [],
      "name": "DEFAULT_STORAGE_QUOTA",
      "outputs": [
        {
          "internalType": "uint256",
          "name": "",
          "type": "uint256"
        }
      ],
      "stateMutability": "view",
      "type": "function"
    },
    {
      "inputs": [],
      "name": "MAX_MESSAGE_SIZE",
      "outputs": [
        {
          "internalType": "uint256",
          "name": "",
          "type": "uint256"
        }
      ],
      "stateMutability": "view",
      "type": "function"
    },
    {
      "inputs": [],
      "name": "STORAGE_FEE",
      "outputs": [
        {
          "internalType": "uint256",
          "name": "",
          "type": "uint256"
        }
      ],
      "stateMutability": "view",
      "type": "function"
    },
    {
      "inputs": [
        {
          "internalType": "address",
          "name": "_contract",
          "type": "address"
        }
      ],
      "name": "authorizeContract",
      "outputs": [],
      "stateMutability": "nonpayable",
      "type": "function"
    },
    {
      "inputs": [
        {
          "internalType": "address",
          "name": "",
          "type": "address"
        }
      ],
      "name": "authorizedContracts",
      "outputs": [
        {
          "internalType": "bool",
          "name": "",
          "type": "bool"
        }
      ],
      "stateMutability": "view",
      "type": "function"
    },
    {
      "inputs": [
        {
          "internalType": "uint256",
          "name": "_messageId",
          "type": "uint256"
        }
      ],
      "name": "deleteMessage",
      "outputs": [],
      "stateMutability": "nonpayable",
      "type": "function"
    },
    {
      "inputs": [
        {
          "internalType": "uint256",
          "name": "_messageId",
          "type": "uint256"
        }
      ],
      "name": "getMessage",
      "outputs": [
        {
          "internalType": "uint256",
          "name": "id",
          "type": "uint256"
        },
        {
          "internalType": "address",
          "name": "sender",
          "type": "address"
        },
        {
          "internalType": "string",
          "name": "ipfsHash",
          "type": "string"
        },
        {
          "internalType": "string",
          "name": "messageType",
          "type": "string"
        },
        {
          "internalType": "uint256",
          "name": "timestamp",
          "type": "uint256"
        },
        {
          "internalType": "bool",
          "name": "isDeleted",
          "type": "bool"
        }
      ],
      "stateMutability": "view",
      "type": "function"
    },
    {
      "inputs": [],
      "name": "getTotalMessageCount",
      "outputs": [
        {
          "internalType": "uint256",
          "name": "",
          "type": "uint256"
        }
      ],
      "stateMutability": "view",
      "type": "function"
    },
    {
      "inputs": [
        {
          "internalType": "address",
          "name": "_user",
          "type": "address"
        },
        {
          "internalType": "uint256",
          "name": "_offset",
          "type": "uint256"
        },
        {
          "internalType": "uint256",
          "name": "_limit",
          "type": "uint256"
        }
      ],
      "name": "getUserMessages",
      "outputs": [
        {
          "internalType": "uint256[]",
          "name": "",
          "type": "uint256[]"
        }
      ],
      "stateMutability": "view",
      "type": "function"
    },
    {
      "inputs": [
        {
          "internalType": "address",
          "name": "_user",
          "type": "address"
        }
      ],
      "name": "getUserStorageInfo",
      "outputs": [
        {
          "internalType": "uint256",
          "name": "usedStorage",
          "type": "uint256"
        },
        {
          "internalType": "uint256",
          "name": "storageQuota",
          "type": "uint256"
        },
        {
          "internalType": "uint256",
          "name": "messageCount",
          "type": "uint256"
        },
        {
          "internalType": "bool",
          "name": "isActive",
          "type": "bool"
        }
      ],
      "stateMutability": "view",
      "type": "function"
    },
    {
      "inputs": [
        {
          "internalType": "uint256",
          "name": "_messageId",
          "type": "uint256"
        },
        {
          "internalType": "address",
          "name": "_user",
          "type": "address"
        }
      ],
      "name": "grantMessageAccess",
      "outputs": [],
      "stateMutability": "nonpayable",
      "type": "function"
    },
    {
      "inputs": [
        {
          "internalType": "uint256",
          "name": "_messageId",
          "type": "uint256"
        },
        {
          "internalType": "address",
          "name": "_user",
          "type": "address"
        }
      ],
      "name": "hasMessageAccess",
      "outputs": [
        {
          "internalType": "bool",
          "name": "",
          "type": "bool"
        }
      ],
      "stateMutability": "view",
      "type": "function"
    },
    {
      "inputs": [
        {
          "internalType": "address",
          "name": "_user",
          "type": "address"
        }
      ],
      "name": "initializeUserStorage",
      "outputs": [],
      "stateMutability": "nonpayable",
      "type": "function"
    },
    {
      "inputs": [
        {
          "internalType": "string",
          "name": "",
          "type": "string"
        }
      ],
      "name": "ipfsToMessageId",
      "outputs": [
        {
          "internalType": "uint256",
          "name": "",
          "type": "uint256"
        }
      ],
      "stateMutability": "view",
      "type": "function"
    },
    {
      "inputs": [
        {
          "internalType": "uint256",
          "name": "",
          "type": "uint256"
        }
      ],
      "name": "messages",
      "outputs": [
        {
          "internalType": "uint256",
          "name": "id",
          "type": "uint256"
        },
        {
          "internalType": "address",
          "name": "sender",
          "type": "address"
        },
        {
          "internalType": "string",
          "name": "ipfsHash",
          "type": "string"
        },
        {
          "internalType": "string",
          "name": "messageType",
          "type": "string"
        },
        {
          "internalType": "uint256",
          "name": "timestamp",
          "type": "uint256"
        },
        {
          "internalType": "bool",
          "name": "isDeleted",
          "type": "bool"
        }
      ],
      "stateMutability": "view",
      "type": "function"
    },
    {
      "inputs": [],
      "name": "owner",
      "outputs": [
        {
          "internalType": "address",
          "name": "",
          "type": "address"
        }
      ],
      "stateMutability": "view",
      "type": "function"
    },
    {
      "inputs": [],
      "name": "renounceOwnership",
      "outputs": [],
      "stateMutability": "nonpayable",
      "type": "function"
    },
    {
      "inputs": [
        {
          "internalType": "uint256",
          "name": "_messageId",
          "type": "uint256"
        }
      ],
      "name": "retrieveMessage",
      "outputs": [
        {
          "internalType": "string",
          "name": "ipfsHash",
          "type": "string"
        }
      ],
      "stateMutability": "view",
      "type": "function"
    },
    {
      "inputs": [
        {
          "internalType": "address",
          "name": "_contract",
          "type": "address"
        }
      ],
      "name": "revokeContractAuthorization",
      "outputs": [],
      "stateMutability": "nonpayable",
      "type": "function"
    },
    {
      "inputs": [
        {
          "internalType": "uint256",
          "name": "_messageId",
          "type": "uint256"
        },
        {
          "internalType": "address",
          "name": "_user",
          "type": "address"
        }
      ],
      "name": "revokeMessageAccess",
      "outputs": [],
      "stateMutability": "nonpayable",
      "type": "function"
    },
    {
      "inputs": [
        {
          "internalType": "address",
          "name": "_sender",
          "type": "address"
        },
        {
          "internalType": "string",
          "name": "_ipfsHash",
          "type": "string"
        },
        {
          "internalType": "string",
          "name": "_messageType",
          "type": "string"
        }
      ],
      "name": "storeMessage",
      "outputs": [
        {
          "internalType": "uint256",
          "name": "messageId",
          "type": "uint256"
        }
      ],
      "stateMutability": "payable",
      "type": "function"
    },
    {
      "inputs": [
        {
          "internalType": "address",
          "name": "newOwner",
          "type": "address"
        }
      ],
      "name": "transferOwnership",
      "outputs": [],
      "stateMutability": "nonpayable",
      "type": "function"
    },
    {
      "inputs": [
        {
          "internalType": "address",
          "name": "_user",
          "type": "address"
        },
        {
          "internalType": "uint256",
          "name": "_newQuota",
          "type": "uint256"
        }
      ],
      "name": "updateStorageQuota",
      "outputs": [],
      "stateMutability": "nonpayable",
      "type": "function"
    },
    {
      "inputs": [
        {
          "internalType": "address",
          "name": "",
          "type": "address"
        },
        {
          "internalType": "uint256",
          "name": "",
          "type": "uint256"
        }
      ],
      "name": "userMessages",
      "outputs": [
        {
          "internalType": "uint256",
          "name": "",
          "type": "uint256"
        }
      ],
      "stateMutability": "view",
      "type": "function"
    },
    {
      "inputs": [
        {
          "internalType": "address",
          "name": "",
          "type": "address"
        }
      ],
      "name": "userStorage",
      "outputs": [
        {
          "internalType": "uint256",
          "name": "usedStorage",
          "type": "uint256"
        },
        {
          "internalType": "uint256",
          "name": "storageQuota",
          "type": "uint256"
        },
        {
          "internalType": "uint256",
          "name": "messageCount",
          "type": "uint256"
        },
        {
          "internalType": "bool",
          "name": "isActive",
          "type": "bool"
        }
      ],
      "stateMutability": "view",
      "type": "function"
    },
    {
      "inputs": [],
      "name": "withdraw",
      "outputs": [],
      "stateMutability": "nonpayable",
      "type": "function"
    }
  ],
  "bytecode": "0x608060405234801561001057600080fd5b50600160005561001f33610032565b61002d600280546001019055565b610084565b600180546001600160a01b038381166001600160a01b0319831681179093556040519116919082907f8be0079c531659141344cd1fd0a4f28419497f9722a3daafe3b4186f6b6457e090600090a35050565b611ca0806100936000396000f3fe6080604052600436106101815760003560e01c80638c8cbc3d116100d1578063b021352a1161008a578063d5b9221b11610064578063d5b9221b146104c7578063e655dfca146104f7578063f2fde38b1461053c578063f44fb3ab1461055c57600080fd5b8063b021352a1461045a578063b888690a1461046f578063c743a63f1461048f57600080fd5b80638c8cbc3d146103945780638da5cb5b146103ae57806390d14f3a146103d65780639428cda3146103f657806397d340f5146104165780639ba8fd091461042d57600080fd5b80633ccfd60b1161013e57806367561d931161011857806367561d931461031f578063715018a61461033f5780638142a0c41461035457806386f79edb1461037457600080fd5b80633ccfd60b1461026c5780634e9e691a1461028157806357b9222f146102f257600080fd5b80630d80fefd146101865780631ea70ad3146101c15780632daa7cec146101e75780632e7827eb146102095780632eda208914610239578063316bf38a14610259575b600080fd5b34801561019257600080fd5b506101a66101a1366004611706565b61057c565b6040516101b89695949392919061176f565b60405180910390f35b3480156101cd57600080fd5b506101d9630640000081565b6040519081526020016101b8565b3480156101f357600080fd5b506102076102023660046117e2565b6106cf565b005b34801561021557600080fd5b5061022961022436600461180c565b610778565b60405190151581526020016101b8565b34801561024557600080fd5b50610207610254366004611838565b6107f7565b6101d96102673660046118f6565b610820565b34801561027857600080fd5b50610207610b32565b34801561028d57600080fd5b506102d061029c366004611838565b6001600160a01b03166000908152600460205260409020805460018201546002830154600390930154919390929160ff1690565b60408051948552602085019390935291830152151560608201526080016101b8565b3480156102fe57600080fd5b5061031261030d36600461196a565b610c3d565b6040516101b8919061199d565b34801561032b57600080fd5b5061020761033a366004611838565b610d99565b34801561034b57600080fd5b50610207610dc5565b34801561036057600080fd5b5061020761036f366004611838565b610dd7565b34801561038057600080fd5b506101a661038f366004611706565b610e91565b3480156103a057600080fd5b506101d96502ba7def300081565b3480156103ba57600080fd5b506001546040516001600160a01b0390911681526020016101b8565b3480156103e257600080fd5b506102076103f136600461180c565b61103a565b34801561040257600080fd5b506101d96104113660046117e2565b6110fb565b34801561042257600080fd5b506101d962a0000081565b34801561043957600080fd5b5061044d610448366004611706565b61112c565b6040516101b891906119e1565b34801561046657600080fd5b506101d96112cd565b34801561047b57600080fd5b5061020761048a366004611706565b6112e9565b34801561049b57600080fd5b506101d96104aa3660046119f4565b805160208183018101805160068252928201919093012091525481565b3480156104d357600080fd5b506102296104e2366004611838565b60076020526000908152604090205460ff1681565b34801561050357600080fd5b506102d0610512366004611838565b60046020526000908152604090208054600182015460028301546003909301549192909160ff1684565b34801561054857600080fd5b50610207610557366004611838565b61147d565b34801561056857600080fd5b5061020761057736600461180c565b6114f6565b60036020526000908152604090208054600182015460028301805492936001600160a01b03909216926105ae90611a31565b80601f01602080910402602001604051908101604052809291908181526020018280546105da90611a31565b80156106275780601f106105fc57610100808354040283529160200191610627565b820191906000526020600020905b81548152906001019060200180831161060a57829003601f168201915b50505050509080600301805461063c90611a31565b80601f016020809104026020016040519081016040528092919081815260200182805461066890611a31565b80156106b55780601f1061068a576101008083540402835291602001916106b5565b820191906000526020600020905b81548152906001019060200180831161069857829003601f168201915b50505050600483015460059093015491929160ff16905086565b6106d7611601565b6000811161071c5760405162461bcd60e51b815260206004820152600d60248201526c496e76616c69642071756f746160981b60448201526064015b60405180910390fd5b6001600160a01b03821660008181526004602052604090819020600101839055517f258b7e5c3e02030e2bccb4dfa5c730cb9efcfbb998834a04100e6e3a8cd5daa59061076c9084815260200190565b60405180910390a25050565b60008260008111801561078d57506002548111155b6107a95760405162461bcd60e51b815260040161071390611a65565b60008481526003602090815260408083206001600160a01b0387168452600681019092529091205460ff16806107ee575060018101546001600160a01b038581169116145b95945050505050565b6107ff611601565b6001600160a01b03166000908152600760205260409020805460ff19169055565b600061082a61165b565b3360009081526007602052604090205460ff168061085257506001546001600160a01b031633145b61089e5760405162461bcd60e51b815260206004820181905260248201527f4e6f7420617574686f72697a656420746f206163636573732073746f726167656044820152606401610713565b8260008151116108e55760405162461bcd60e51b815260206004820152601260248201527112541194c81a185cda081c995c5d5a5c995960721b6044820152606401610713565b6502ba7def300034101561093b5760405162461bcd60e51b815260206004820152601860248201527f496e73756666696369656e742073746f726167652066656500000000000000006044820152606401610713565b60068460405161094b9190611a95565b9081526020016040518091039020546000146109a25760405162461bcd60e51b815260206004820152601660248201527513595cdcd859d948185b1c9958591e481cdd1bdc995960521b6044820152606401610713565b60025491506109b5600280546001019055565b60008281526003602052604090208281556001810180546001600160a01b0319166001600160a01b038816179055600281016109f18682611b00565b5060038101610a008582611b00565b5042600482015560058101805460ff199081169091556001600160a01b03871660009081526006808401602052604091829020805490931660011790925551849190610a4d908890611a95565b9081526040805160209281900383019020929092556001600160a01b0388166000818152600583528381208054600181018255908252838220018790559081526004909152908120600201805491610aa483611bd6565b90915550506001600160a01b0386166000908152600460205260408120805462a000009290610ad4908490611bef565b92505081905550856001600160a01b0316837fae4bb1badf960e99aa557d9e22c1eb65c0d2aab1f647d959c31ad9b21525e5378742604051610b17929190611c08565b60405180910390a35050610b2b6001600055565b9392505050565b610b3a611601565b610b4261165b565b4780610b895760405162461bcd60e51b81526020600482015260166024820152754e6f2062616c616e636520746f20776974686472617760501b6044820152606401610713565b6000610b9d6001546001600160a01b031690565b6001600160a01b03168260405160006040518083038185875af1925050503d8060008114610be7576040519150601f19603f3d011682016040523d82523d6000602084013e610bec565b606091505b5050905080610c2f5760405162461bcd60e51b815260206004820152600f60248201526e15da5d1a191c985dc819985a5b1959608a1b6044820152606401610713565b5050610c3b6001600055565b565b6001600160a01b0383166000908152600560209081526040808320805482518185028101850190935280835260609493830182828015610c9c57602002820191906000526020600020905b815481526020019060010190808311610c88575b5050835193945050508186109050610cc65750506040805160008152602081019091529050610b2b565b6000610cd28587611bef565b905081811115610cdf5750805b6000610ceb8783611c2a565b67ffffffffffffffff811115610d0357610d03611853565b604051908082528060200260200182016040528015610d2c578160200160208202803683370190505b509050865b82811015610d8d57848181518110610d4b57610d4b611c3d565b6020026020010151828983610d609190611c2a565b81518110610d7057610d70611c3d565b602090810291909101015280610d8581611bd6565b915050610d31565b50979650505050505050565b610da1611601565b6001600160a01b03166000908152600760205260409020805460ff19166001179055565b610dcd611601565b610c3b60006116b4565b3360009081526007602052604090205460ff1680610dff57506001546001600160a01b031633145b610e4b5760405162461bcd60e51b815260206004820181905260248201527f4e6f7420617574686f72697a656420746f206163636573732073746f726167656044820152606401610713565b6001600160a01b0381166000908152600460205260409020600381015460ff16610e8d57630640000060018083019190915560038201805460ff191690911790555b5050565b60008060608060008086600081118015610ead57506002548111155b610ec95760405162461bcd60e51b815260040161071390611a65565b60008881526003602081905260409091208054600182015460048301546005840154600285018054959694956001600160a01b03909416949093908701929160ff16908490610f1790611a31565b80601f0160208091040260200160405190810160405280929190818152602001828054610f4390611a31565b8015610f905780601f10610f6557610100808354040283529160200191610f90565b820191906000526020600020905b815481529060010190602001808311610f7357829003601f168201915b50505050509350828054610fa390611a31565b80601f0160208091040260200160405190810160405280929190818152602001828054610fcf90611a31565b801561101c5780601f10610ff15761010080835404028352916020019161101c565b820191906000526020600020905b815481529060010190602001808311610fff57829003601f168201915b50505050509250975097509750975097509750505091939550919395565b8160008111801561104d57506002548111155b6110695760405162461bcd60e51b815260040161071390611a65565b600083815260036020526040902060018101546001600160a01b031633146110d35760405162461bcd60e51b815260206004820152601d60248201527f4f6e6c792073656e6465722063616e207265766f6b65206163636573730000006044820152606401610713565b6001600160a01b03909216600090815260069092016020525060409020805460ff1916905550565b6005602052816000526040600020818154811061111757600080fd5b90600052602060002001600091509150505481565b60608160008111801561114157506002548111155b61115d5760405162461bcd60e51b815260040161071390611a65565b6000838152600360205260409020600581015460ff16156111b25760405162461bcd60e51b815260206004820152600f60248201526e13595cdcd859d94819195b195d1959608a1b6044820152606401610713565b33600090815260068201602052604090205460ff16806111de575060018101546001600160a01b031633145b806111f357506001546001600160a01b031633145b6112365760405162461bcd60e51b81526020600482015260146024820152734e6f2061636365737320746f206d65737361676560601b6044820152606401610713565b80600201805461124590611a31565b80601f016020809104026020016040519081016040528092919081815260200182805461127190611a31565b80156112be5780601f10611293576101008083540402835291602001916112be565b820191906000526020600020905b8154815290600101906020018083116112a157829003601f168201915b50505050509250505b50919050565b600060016112da60025490565b6112e49190611c2a565b905090565b806000811180156112fc57506002548111155b6113185760405162461bcd60e51b815260040161071390611a65565b600082815260036020526040902060018101546001600160a01b031633146113825760405162461bcd60e51b815260206004820152601e60248201527f4f6e6c792073656e6465722063616e2064656c657465206d65737361676500006044820152606401610713565b600581015460ff16156113d75760405162461bcd60e51b815260206004820152601760248201527f4d65737361676520616c72656164792064656c657465640000000000000000006044820152606401610713565b60058101805460ff191660019081179091558101546001600160a01b03166000908152600460205260408120805462a000009290611416908490611c2a565b909155505060018101546001600160a01b0316600090815260046020526040812060020180549161144683611c53565b9091555050604051339084907ffb2787660bc2cbdfc289209f8fc92a07a17109a8f520025df91f322e51da794790600090a3505050565b611485611601565b6001600160a01b0381166114ea5760405162461bcd60e51b815260206004820152602660248201527f4f776e61626c653a206e6577206f776e657220697320746865207a65726f206160448201526564647265737360d01b6064820152608401610713565b6114f3816116b4565b50565b8160008111801561150957506002548111155b6115255760405162461bcd60e51b815260040161071390611a65565b600083815260036020526040902060018101546001600160a01b0316331461158f5760405162461bcd60e51b815260206004820152601c60248201527f4f6e6c792073656e6465722063616e206772616e7420616363657373000000006044820152606401610713565b600581015460ff16156115d65760405162461bcd60e51b815260206004820152600f60248201526e13595cdcd859d94819195b195d1959608a1b6044820152606401610713565b6001600160a01b03909216600090815260069092016020525060409020805460ff1916600117905550565b6001546001600160a01b03163314610c3b5760405162461bcd60e51b815260206004820181905260248201527f4f776e61626c653a2063616c6c6572206973206e6f7420746865206f776e65726044820152606401610713565b6002600054036116ad5760405162461bcd60e51b815260206004820152601f60248201527f5265656e7472616e637947756172643a207265656e7472616e742063616c6c006044820152606401610713565b6002600055565b600180546001600160a01b038381166001600160a01b0319831681179093556040519116919082907f8be0079c531659141344cd1fd0a4f28419497f9722a3daafe3b4186f6b6457e090600090a35050565b60006020828403121561171857600080fd5b5035919050565b60005b8381101561173a578181015183820152602001611722565b50506000910152565b6000815180845261175b81602086016020860161171f565b601f01601f19169290920160200192915050565b8681526001600160a01b038616602082015260c06040820181905260009061179990830187611743565b82810360608401526117ab8187611743565b6080840195909552505090151560a090910152949350505050565b80356001600160a01b03811681146117dd57600080fd5b919050565b600080604083850312156117f557600080fd5b6117fe836117c6565b946020939093013593505050565b6000806040838503121561181f57600080fd5b8235915061182f602084016117c6565b90509250929050565b60006020828403121561184a57600080fd5b610b2b826117c6565b634e487b7160e01b600052604160045260246000fd5b600082601f83011261187a57600080fd5b813567ffffffffffffffff8082111561189557611895611853565b604051601f8301601f19908116603f011681019082821181831017156118bd576118bd611853565b816040528381528660208588010111156118d657600080fd5b836020870160208301376000602085830101528094505050505092915050565b60008060006060848603121561190b57600080fd5b611914846117c6565b9250602084013567ffffffffffffffff8082111561193157600080fd5b61193d87838801611869565b9350604086013591508082111561195357600080fd5b5061196086828701611869565b9150509250925092565b60008060006060848603121561197f57600080fd5b611988846117c6565b95602085013595506040909401359392505050565b6020808252825182820181905260009190848201906040850190845b818110156119d5578351835292840192918401916001016119b9565b50909695505050505050565b602081526000610b2b6020830184611743565b600060208284031215611a0657600080fd5b813567ffffffffffffffff811115611a1d57600080fd5b611a2984828501611869565b949350505050565b600181811c90821680611a4557607f821691505b6020821081036112c757634e487b7160e01b600052602260045260246000fd5b60208082526016908201527513595cdcd859d948191bd95cc81b9bdd08195e1a5cdd60521b604082015260600190565b60008251611aa781846020870161171f565b9190910192915050565b601f821115611afb57600081815260208120601f850160051c81016020861015611ad85750805b601f850160051c820191505b81811015611af757828155600101611ae4565b5050505b505050565b815167ffffffffffffffff811115611b1a57611b1a611853565b611b2e81611b288454611a31565b84611ab1565b602080601f831160018114611b635760008415611b4b5750858301515b600019600386901b1c1916600185901b178555611af7565b600085815260208120601f198616915b82811015611b9257888601518255948401946001909101908401611b73565b5085821015611bb05787850151600019600388901b60f8161c191681555b5050505050600190811b01905550565b634e487b7160e01b600052601160045260246000fd5b600060018201611be857611be8611bc0565b5060010190565b80820180821115611c0257611c02611bc0565b92915050565b604081526000611c1b6040830185611743565b90508260208301529392505050565b81810381811115611c0257611c02611bc0565b634e487b7160e01b600052603260045260246000fd5b600081611c6257611c62611bc0565b50600019019056fea26469706673582212205ba14d602daebc72335a8cda93c44ccf4c27f29c4ee9401d1696b3dabf15e71964736f6c63430008130033",
  "linkReferences": {},
  "deployedLinkReferences": {}
}