{
  "_format": "hh-sol-artifact-1",
  "contractName": "NotificationSystem",
  "sourceName": "contracts/NotificationSystem.sol",
  "abi": [
    {
      "inputs": [],
      "stateMutability": "nonpayable",
      "type": "constructor"
    },
    {
      "anonymous": false,
      "inputs": [
        {
          "indexed": true,
          "internalType": "uint256",
          "name": "notificationId",
          "type": "uint256"
        },
        {
          "indexed": true,
          "internalType": "address",
          "name": "deleter",
          "type": "address"
        }
      ],
      "name": "NotificationDeleted",
      "type": "event"
    },
    {
      "anonymous": false,
      "inputs": [
        {
          "indexed": true,
          "internalType": "uint256",
          "name": "notificationId",
          "type": "uint256"
        },
        {
          "indexed": true,
          "internalType": "address",
          "name": "reader",
          "type": "address"
        }
      ],
      "name": "NotificationRead",
      "type": "event"
    },
    {
      "anonymous": false,
      "inputs": [
        {
          "indexed": true,
          "internalType": "uint256",
          "name": "notificationId",
          "type": "uint256"
        },
        {
          "indexed": true,
          "internalType": "address",
          "name": "recipient",
          "type": "address"
        },
        {
          "indexed": false,
          "internalType": "string",
          "name": "title",
          "type": "string"
        },
        {
          "indexed": false,
          "internalType": "string",
          "name": "message",
          "type": "string"
        },
        {
          "indexed": false,
          "internalType": "string",
          "name": "notificationType",
          "type": "string"
        },
        {
          "indexed": false,
          "internalType": "uint256",
          "name": "timestamp",
          "type": "uint256"
        }
      ],
      "name": "NotificationSent",
      "type": "event"
    },
    {
      "anonymous": false,
      "inputs": [
        {
          "indexed": true,
          "internalType": "address",
          "name": "previousOwner",
          "type": "address"
        },
        {
          "indexed": true,
          "internalType": "address",
          "name": "newOwner",
          "type": "address"
        }
      ],
      "name": "OwnershipTransferred",
      "type": "event"
    },
    {
      "anonymous": false,
      "inputs": [
        {
          "indexed": true,
          "internalType": "address",
          "name": "user",
          "type": "address"
        },
        {
          "indexed": false,
          "internalType": "string",
          "name": "notificationType",
          "type": "string"
        },
        {
          "indexed": false,
          "internalType": "bool",
          "name": "isSubscribed",
          "type": "bool"
        }
      ],
      "name": "SubscriptionUpdated",
      "type": "event"
    },
    {
      "inputs": [],
      "name": "MAX_MESSAGE_LENGTH",
      "outputs": [
        {
          "internalType": "uint256",
          "name": "",
          "type": "uint256"
        }
      ],
      "stateMutability": "view",
      "type": "function"
    },
    {
      "inputs": [],
      "name": "MAX_TITLE_LENGTH",
      "outputs": [
        {
          "internalType": "uint256",
          "name": "",
          "type": "uint256"
        }
      ],
      "stateMutability": "view",
      "type": "function"
    },
    {
      "inputs": [],
      "name": "NOTIFICATION_FEE",
      "outputs": [
        {
          "internalType": "uint256",
          "name": "",
          "type": "uint256"
        }
      ],
      "stateMutability": "view",
      "type": "function"
    },
    {
      "inputs": [
        {
          "internalType": "string",
          "name": "_notificationType",
          "type": "string"
        }
      ],
      "name": "addSupportedNotificationType",
      "outputs": [],
      "stateMutability": "nonpayable",
      "type": "function"
    },
    {
      "inputs": [
        {
          "internalType": "address",
          "name": "_contract",
          "type": "address"
        }
      ],
      "name": "authorizeContract",
      "outputs": [],
      "stateMutability": "nonpayable",
      "type": "function"
    },
    {
      "inputs": [
        {
          "internalType": "address",
          "name": "",
          "type": "address"
        }
      ],
      "name": "authorizedContracts",
      "outputs": [
        {
          "internalType": "bool",
          "name": "",
          "type": "bool"
        }
      ],
      "stateMutability": "view",
      "type": "function"
    },
    {
      "inputs": [
        {
          "internalType": "uint256",
          "name": "_notificationId",
          "type": "uint256"
        }
      ],
      "name": "deleteNotification",
      "outputs": [],
      "stateMutability": "nonpayable",
      "type": "function"
    },
    {
      "inputs": [
        {
          "internalType": "uint256",
          "name": "_notificationId",
          "type": "uint256"
        }
      ],
      "name": "getNotification",
      "outputs": [
        {
          "internalType": "uint256",
          "name": "id",
          "type": "uint256"
        },
        {
          "internalType": "address",
          "name": "sender",
          "type": "address"
        },
        {
          "internalType": "address",
          "name": "recipient",
          "type": "address"
        },
        {
          "internalType": "string",
          "name": "title",
          "type": "string"
        },
        {
          "internalType": "string",
          "name": "message",
          "type": "string"
        },
        {
          "internalType": "string",
          "name": "notificationType",
          "type": "string"
        },
        {
          "internalType": "uint256",
          "name": "timestamp",
          "type": "uint256"
        },
        {
          "internalType": "bool",
          "name": "isRead",
          "type": "bool"
        },
        {
          "internalType": "bool",
          "name": "isDeleted",
          "type": "bool"
        }
      ],
      "stateMutability": "view",
      "type": "function"
    },
    {
      "inputs": [],
      "name": "getTotalNotificationCount",
      "outputs": [
        {
          "internalType": "uint256",
          "name": "",
          "type": "uint256"
        }
      ],
      "stateMutability": "view",
      "type": "function"
    },
    {
      "inputs": [
        {
          "internalType": "address",
          "name": "_user",
          "type": "address"
        }
      ],
      "name": "getUnreadCount",
      "outputs": [
        {
          "internalType": "uint256",
          "name": "",
          "type": "uint256"
        }
      ],
      "stateMutability": "view",
      "type": "function"
    },
    {
      "inputs": [
        {
          "internalType": "address",
          "name": "_user",
          "type": "address"
        },
        {
          "internalType": "uint256",
          "name": "_offset",
          "type": "uint256"
        },
        {
          "internalType": "uint256",
          "name": "_limit",
          "type": "uint256"
        }
      ],
      "name": "getUserNotifications",
      "outputs": [
        {
          "internalType": "uint256[]",
          "name": "",
          "type": "uint256[]"
        }
      ],
      "stateMutability": "view",
      "type": "function"
    },
    {
      "inputs": [
        {
          "internalType": "address",
          "name": "_user",
          "type": "address"
        }
      ],
      "name": "getUserPreferences",
      "outputs": [
        {
          "internalType": "bool",
          "name": "messageNotifications",
          "type": "bool"
        },
        {
          "internalType": "bool",
          "name": "batchNotifications",
          "type": "bool"
        },
        {
          "internalType": "bool",
          "name": "transactionNotifications",
          "type": "bool"
        },
        {
          "internalType": "bool",
          "name": "systemNotifications",
          "type": "bool"
        },
        {
          "internalType": "bool",
          "name": "marketingNotifications",
          "type": "bool"
        },
        {
          "internalType": "uint256",
          "name": "lastUpdated",
          "type": "uint256"
        }
      ],
      "stateMutability": "view",
      "type": "function"
    },
    {
      "inputs": [
        {
          "internalType": "uint256",
          "name": "_notificationId",
          "type": "uint256"
        }
      ],
      "name": "markAsRead",
      "outputs": [],
      "stateMutability": "nonpayable",
      "type": "function"
    },
    {
      "inputs": [
        {
          "internalType": "uint256",
          "name": "",
          "type": "uint256"
        }
      ],
      "name": "notifications",
      "outputs": [
        {
          "internalType": "uint256",
          "name": "id",
          "type": "uint256"
        },
        {
          "internalType": "address",
          "name": "sender",
          "type": "address"
        },
        {
          "internalType": "address",
          "name": "recipient",
          "type": "address"
        },
        {
          "internalType": "string",
          "name": "title",
          "type": "string"
        },
        {
          "internalType": "string",
          "name": "message",
          "type": "string"
        },
        {
          "internalType": "string",
          "name": "notificationType",
          "type": "string"
        },
        {
          "internalType": "uint256",
          "name": "timestamp",
          "type": "uint256"
        },
        {
          "internalType": "bool",
          "name": "isRead",
          "type": "bool"
        },
        {
          "internalType": "bool",
          "name": "isDeleted",
          "type": "bool"
        }
      ],
      "stateMutability": "view",
      "type": "function"
    },
    {
      "inputs": [],
      "name": "owner",
      "outputs": [
        {
          "internalType": "address",
          "name": "",
          "type": "address"
        }
      ],
      "stateMutability": "view",
      "type": "function"
    },
    {
      "inputs": [
        {
          "internalType": "string",
          "name": "_notificationType",
          "type": "string"
        }
      ],
      "name": "removeSupportedNotificationType",
      "outputs": [],
      "stateMutability": "nonpayable",
      "type": "function"
    },
    {
      "inputs": [],
      "name": "renounceOwnership",
      "outputs": [],
      "stateMutability": "nonpayable",
      "type": "function"
    },
    {
      "inputs": [
        {
          "internalType": "address",
          "name": "_contract",
          "type": "address"
        }
      ],
      "name": "revokeContractAuthorization",
      "outputs": [],
      "stateMutability": "nonpayable",
      "type": "function"
    },
    {
      "inputs": [
        {
          "internalType": "address",
          "name": "_recipient",
          "type": "address"
        },
        {
          "internalType": "string",
          "name": "_title",
          "type": "string"
        },
        {
          "internalType": "string",
          "name": "_message",
          "type": "string"
        },
        {
          "internalType": "string",
          "name": "_notificationType",
          "type": "string"
        }
      ],
      "name": "sendNotification",
      "outputs": [
        {
          "internalType": "uint256",
          "name": "notificationId",
          "type": "uint256"
        }
      ],
      "stateMutability": "payable",
      "type": "function"
    },
    {
      "inputs": [
        {
          "internalType": "string",
          "name": "",
          "type": "string"
        }
      ],
      "name": "supportedNotificationTypes",
      "outputs": [
        {
          "internalType": "bool",
          "name": "",
          "type": "bool"
        }
      ],
      "stateMutability": "view",
      "type": "function"
    },
    {
      "inputs": [
        {
          "internalType": "address",
          "name": "newOwner",
          "type": "address"
        }
      ],
      "name": "transferOwnership",
      "outputs": [],
      "stateMutability": "nonpayable",
      "type": "function"
    },
    {
      "inputs": [
        {
          "internalType": "bool",
          "name": "_messageNotifications",
          "type": "bool"
        },
        {
          "internalType": "bool",
          "name": "_batchNotifications",
          "type": "bool"
        },
        {
          "internalType": "bool",
          "name": "_transactionNotifications",
          "type": "bool"
        },
        {
          "internalType": "bool",
          "name": "_systemNotifications",
          "type": "bool"
        },
        {
          "internalType": "bool",
          "name": "_marketingNotifications",
          "type": "bool"
        }
      ],
      "name": "updateNotificationPreferences",
      "outputs": [],
      "stateMutability": "nonpayable",
      "type": "function"
    },
    {
      "inputs": [
        {
          "internalType": "address",
          "name": "",
          "type": "address"
        },
        {
          "internalType": "uint256",
          "name": "",
          "type": "uint256"
        }
      ],
      "name": "userNotifications",
      "outputs": [
        {
          "internalType": "uint256",
          "name": "",
          "type": "uint256"
        }
      ],
      "stateMutability": "view",
      "type": "function"
    },
    {
      "inputs": [
        {
          "internalType": "address",
          "name": "",
          "type": "address"
        }
      ],
      "name": "userPreferences",
      "outputs": [
        {
          "internalType": "bool",
          "name": "messageNotifications",
          "type": "bool"
        },
        {
          "internalType": "bool",
          "name": "batchNotifications",
          "type": "bool"
        },
        {
          "internalType": "bool",
          "name": "transactionNotifications",
          "type": "bool"
        },
        {
          "internalType": "bool",
          "name": "systemNotifications",
          "type": "bool"
        },
        {
          "internalType": "bool",
          "name": "marketingNotifications",
          "type": "bool"
        },
        {
          "internalType": "uint256",
          "name": "lastUpdated",
          "type": "uint256"
        }
      ],
      "stateMutability": "view",
      "type": "function"
    },
    {
      "inputs": [],
      "name": "withdraw",
      "outputs": [],
      "stateMutability": "nonpayable",
      "type": "function"
    }
  ],
  "bytecode": "0x608060405234801561001057600080fd5b50600160005561001f3361011d565b61002d600280546001019055565b6001600760405161004b90666d65737361676560c81b815260070190565b90815260408051918290036020018220805493151560ff199485161790556c62617463685f6d65737361676560981b82526007600d8301819052815192839003602d0183208054851660019081179091556a3a3930b739b0b1ba34b7b760a91b8452600b8401829052825193849003602b01842080548616821790556573797374656d60d01b84526006840182905282519384900360260184208054861682179055686d61726b6574696e6760b81b84526009840191909152905191829003602901909120805490921617905561016f565b600180546001600160a01b038381166001600160a01b0319831681179093556040519116919082907f8be0079c531659141344cd1fd0a4f28419497f9722a3daafe3b4186f6b6457e090600090a35050565b611fa68061017e6000396000f3fe6080604052600436106101665760003560e01c80636793bcbf116100d1578063a662fac91161008a578063d5b9221b11610064578063d5b9221b14610503578063e567d29d14610533578063f2fde38b14610546578063f9078b051461056657600080fd5b8063a662fac9146104a3578063b53c8398146104c3578063c153e97f146104e357600080fd5b80636793bcbf1461037c578063715018a6146103db5780637c100c36146103f0578063875cde2e146104105780638da5cb5b1461043057806396846b161461045857600080fd5b806335b123331161012357806335b123331461025157806338c91910146102f257806338dc1952146103125780633ccfd60b146103275780634209afc91461033c57806367561d931461035c57600080fd5b806306b40ca21461016b57806320dcf4f1146101a15780632a027211146101c35780632eda2089146101e75780632ef9a1601461020757806334c1f9441461021c575b600080fd5b34801561017757600080fd5b5061018b61018636600461196e565b610580565b60405161019891906119a1565b60405180910390f35b3480156101ad57600080fd5b506101c16101bc366004611a88565b6106de565b005b3480156101cf57600080fd5b506101d96101f481565b604051908152602001610198565b3480156101f357600080fd5b506101c1610202366004611abd565b61071b565b34801561021357600080fd5b506101d9606481565b34801561022857600080fd5b5061023c610237366004611ad8565b610744565b60405161019899989796959493929190611b41565b34801561025d57600080fd5b506102bb61026c366004611abd565b6001600160a01b03166000908152600560205260409020805460019091015460ff8083169361010084048216936201000081048316936301000000820484169364010000000090920490911691565b60408051961515875294151560208701529215159385019390935215156060840152901515608083015260a082015260c001610198565b3480156102fe57600080fd5b506101d961030d366004611bc1565b610938565b34801561031e57600080fd5b506101d9610969565b34801561033357600080fd5b506101c1610985565b34801561034857600080fd5b506101c1610357366004611bfb565b610a95565b34801561036857600080fd5b506101c1610377366004611abd565b610c5d565b34801561038857600080fd5b506102bb610397366004611abd565b6005602052600090815260409020805460019091015460ff808316926101008104821692620100008204831692630100000083048116926401000000009004169086565b3480156103e757600080fd5b506101c1610c89565b3480156103fc57600080fd5b506101c161040b366004611ad8565b610c9b565b34801561041c57600080fd5b506101c161042b366004611a88565b610de2565b34801561043c57600080fd5b506001546040516001600160a01b039091168152602001610198565b34801561046457600080fd5b50610493610473366004611a88565b805160208183018101805160078252928201919093012091525460ff1681565b6040519015158152602001610198565b3480156104af57600080fd5b506101d96104be366004611abd565b610dfc565b3480156104cf57600080fd5b506101c16104de366004611ad8565b610eef565b3480156104ef57600080fd5b5061023c6104fe366004611ad8565b611019565b34801561050f57600080fd5b5061049361051e366004611abd565b60066020526000908152604090205460ff1681565b6101d9610541366004611c60565b611277565b34801561055257600080fd5b506101c1610561366004611abd565b6117d4565b34801561057257600080fd5b506101d96502ba7def300081565b6001600160a01b03831660009081526004602090815260408083208054825181850281018501909352808352606094938301828280156105df57602002820191906000526020600020905b8154815260200190600101908083116105cb575b505083519394505050818610905061060957505060408051600081526020810190915290506106d7565b60006106158587611d0f565b9050818111156106225750805b600061062e8783611d28565b67ffffffffffffffff811115610646576106466119e5565b60405190808252806020026020018201604052801561066f578160200160208202803683370190505b509050865b828110156106d05784818151811061068e5761068e611d3b565b60200260200101518289836106a39190611d28565b815181106106b3576106b3611d3b565b6020908102919091010152806106c881611d51565b915050610674565b5093505050505b9392505050565b6106e661184d565b60016007826040516106f89190611d6a565b908152604051908190036020019020805491151560ff1990921691909117905550565b61072361184d565b6001600160a01b03166000908152600660205260409020805460ff19169055565b6003602081905260009182526040909120805460018201546002830154938301805492946001600160a01b039283169492169261078090611d86565b80601f01602080910402602001604051908101604052809291908181526020018280546107ac90611d86565b80156107f95780601f106107ce576101008083540402835291602001916107f9565b820191906000526020600020905b8154815290600101906020018083116107dc57829003601f168201915b50505050509080600401805461080e90611d86565b80601f016020809104026020016040519081016040528092919081815260200182805461083a90611d86565b80156108875780601f1061085c57610100808354040283529160200191610887565b820191906000526020600020905b81548152906001019060200180831161086a57829003601f168201915b50505050509080600501805461089c90611d86565b80601f01602080910402602001604051908101604052809291908181526020018280546108c890611d86565b80156109155780601f106108ea57610100808354040283529160200191610915565b820191906000526020600020905b8154815290600101906020018083116108f857829003601f168201915b50505050600683015460079093015491929160ff80821692506101009091041689565b6004602052816000526040600020818154811061095457600080fd5b90600052602060002001600091509150505481565b6000600161097660025490565b6109809190611d28565b905090565b61098d61184d565b6109956118a7565b47806109e15760405162461bcd60e51b81526020600482015260166024820152754e6f2062616c616e636520746f20776974686472617760501b60448201526064015b60405180910390fd5b60006109f56001546001600160a01b031690565b6001600160a01b03168260405160006040518083038185875af1925050503d8060008114610a3f576040519150601f19603f3d011682016040523d82523d6000602084013e610a44565b606091505b5050905080610a875760405162461bcd60e51b815260206004820152600f60248201526e15da5d1a191c985dc819985a5b1959608a1b60448201526064016109d8565b5050610a936001600055565b565b33600081815260056020908152604091829020805461ffff191689151561ff00198116919091176101008a1515021763ffff00001916620100008915150263ff0000001916176301000000881515021764ff000000001916640100000000871515021782554260018301558351848152600794810194909452666d65737361676560c81b6060850152918301919091529190600080516020611f518339815191529060800160405180910390a260408051818152600d818301526c62617463685f6d65737361676560981b6060820152861515602082015290513391600080516020611f51833981519152919081900360800190a260408051818152600b818301526a3a3930b739b0b1ba34b7b760a91b6060820152851515602082015290513391600080516020611f51833981519152919081900360800190a2604080518181526006818301526573797374656d60d01b6060820152841515602082015290513391600080516020611f51833981519152919081900360800190a260408051818152600981830152686d61726b6574696e6760b81b6060820152831515602082015290513391600080516020611f51833981519152919081900360800190a2505050505050565b610c6561184d565b6001600160a01b03166000908152600660205260409020805460ff19166001179055565b610c9161184d565b610a936000611900565b80600081118015610cae57506002548111155b610cca5760405162461bcd60e51b81526004016109d890611dc0565b600082815260036020526040902060028101546001600160a01b03163314610d285760405162461bcd60e51b8152602060048201526011602482015270139bdd081d1a19481c9958da5c1a595b9d607a1b60448201526064016109d8565b6007810154610100900460ff1615610d795760405162461bcd60e51b8152602060048201526014602482015273139bdd1a599a58d85d1a5bdb8819195b195d195960621b60448201526064016109d8565b600781015460ff16610ddd57600781018054600160ff1991821681179092553360008181526008850160205260408082208054909416909417909255915185917fd466060591829febac5b030d3ec4d6d94078278c12132da3f3f2f7a8b67fca4b91a35b505050565b610dea61184d565b60006007826040516106f89190611d6a565b6001600160a01b038116600090815260046020908152604080832080548251818502810185019093528083528493830182828015610e5957602002820191906000526020600020905b815481526020019060010190808311610e45575b505050505090506000805b8251811015610ee7576000838281518110610e8157610e81611d3b565b60209081029190910181015160008181526003909252604090912060078101549192509060ff16158015610ebf57506007810154610100900460ff16155b15610ed25783610ece81611d51565b9450505b50508080610edf90611d51565b915050610e64565b509392505050565b80600081118015610f0257506002548111155b610f1e5760405162461bcd60e51b81526004016109d890611dc0565b600082815260036020526040902060028101546001600160a01b03163314610f7c5760405162461bcd60e51b8152602060048201526011602482015270139bdd081d1a19481c9958da5c1a595b9d607a1b60448201526064016109d8565b6007810154610100900460ff1615610fd65760405162461bcd60e51b815260206004820152601c60248201527f4e6f74696669636174696f6e20616c72656164792064656c657465640000000060448201526064016109d8565b60078101805461ff001916610100179055604051339084907fd49a87a4f21b09aafe69a3cf01f1da44a07df217638469d43dd10a3cafe68a1790600090a3505050565b6000806000606080606060008060008960008111801561103b57506002548111155b6110575760405162461bcd60e51b81526004016109d890611dc0565b60008b8152600360208190526040909120805460018201546002830154600684015460078501549585018054959694956001600160a01b03948516959490931693909260048801926005890192909160ff808316926101009004169086906110be90611d86565b80601f01602080910402602001604051908101604052809291908181526020018280546110ea90611d86565b80156111375780601f1061110c57610100808354040283529160200191611137565b820191906000526020600020905b81548152906001019060200180831161111a57829003601f168201915b5050505050955084805461114a90611d86565b80601f016020809104026020016040519081016040528092919081815260200182805461117690611d86565b80156111c35780601f10611198576101008083540402835291602001916111c3565b820191906000526020600020905b8154815290600101906020018083116111a657829003601f168201915b505050505094508380546111d690611d86565b80601f016020809104026020016040519081016040528092919081815260200182805461120290611d86565b801561124f5780601f106112245761010080835404028352916020019161124f565b820191906000526020600020905b81548152906001019060200180831161123257829003601f168201915b505050505093509a509a509a509a509a509a509a509a509a5050509193959799909294969850565b60006112816118a7565b3360009081526006602052604090205460ff16806112a957506001546001600160a01b031633145b6113015760405162461bcd60e51b8152602060048201526024808201527f4e6f7420617574686f72697a656420746f2073656e64206e6f74696669636174604482015263696f6e7360e01b60648201526084016109d8565b83836064825111156113465760405162461bcd60e51b815260206004820152600e60248201526d5469746c6520746f6f206c6f6e6760901b60448201526064016109d8565b6101f48151111561138c5760405162461bcd60e51b815260206004820152601060248201526f4d65737361676520746f6f206c6f6e6760801b60448201526064016109d8565b60008251116113ce5760405162461bcd60e51b815260206004820152600e60248201526d151a5d1b19481c995c5d5a5c995960921b60448201526064016109d8565b60008151116114125760405162461bcd60e51b815260206004820152601060248201526f13595cdcd859d9481c995c5d5a5c995960821b60448201526064016109d8565b6502ba7def30003410156114685760405162461bcd60e51b815260206004820152601d60248201527f496e73756666696369656e74206e6f74696669636174696f6e2066656500000060448201526064016109d8565b6007846040516114789190611d6a565b9081526040519081900360200190205460ff166114d75760405162461bcd60e51b815260206004820152601d60248201527f556e737570706f72746564206e6f74696669636174696f6e207479706500000060448201526064016109d8565b6001600160a01b0387166115215760405162461bcd60e51b8152602060048201526011602482015270125b9d985b1a59081c9958da5c1a595b9d607a1b60448201526064016109d8565b6001600160a01b03871660009081526005602052604090206001810154156116bb57845160208601207fc2baf6c66618acd49fb133cebc22f55bd907fe9f0d69a726d45b7539ba6bbe0814801561157a5750805460ff16155b156115895760009350506117c0565b845160208601207f694573008ef01bc4f68f3bf1b79fb0308dea48d936445b0ce39b4cd62f7c0e181480156115c557508054610100900460ff16155b156115d45760009350506117c0565b845160208601207fbb2a99297e1d12a9b91d4f90d5dd4b160d93c84a9e3b4daa916fec14ec852e051480156116115750805462010000900460ff16155b156116205760009350506117c0565b845160208601207fbb652b92498c3be9af648d37985095b6e17200cd0913d95bd383d572de1f388614801561165e575080546301000000900460ff16155b1561166d5760009350506117c0565b845160208601207f480d3dacbe70ae0541e56579fab062a46bee6f5728375bd8a481f9f9e71bafdb1480156116ac57508054640100000000900460ff16155b156116bb5760009350506117c0565b60025493506116ce600280546001019055565b6000848152600360208190526040909120858155600181018054336001600160a01b0319918216179091556002820180549091166001600160a01b038c1617905590810161171c8982611e45565b506004810161172b8882611e45565b506005810161173a8782611e45565b50426006820181905560078201805461ffff191690556001600160a01b038a1660008181526004602090815260408083208054600181018255908452919092200188905551909187917fff104dfcf22b60b8bf09408604f5d738f4d7ce9c43e854e33d715e48752b30f5916117b5918d918d918d9190611f05565b60405180910390a350505b50506117cc6001600055565b949350505050565b6117dc61184d565b6001600160a01b0381166118415760405162461bcd60e51b815260206004820152602660248201527f4f776e61626c653a206e6577206f776e657220697320746865207a65726f206160448201526564647265737360d01b60648201526084016109d8565b61184a81611900565b50565b6001546001600160a01b03163314610a935760405162461bcd60e51b815260206004820181905260248201527f4f776e61626c653a2063616c6c6572206973206e6f7420746865206f776e657260448201526064016109d8565b6002600054036118f95760405162461bcd60e51b815260206004820152601f60248201527f5265656e7472616e637947756172643a207265656e7472616e742063616c6c0060448201526064016109d8565b6002600055565b600180546001600160a01b038381166001600160a01b0319831681179093556040519116919082907f8be0079c531659141344cd1fd0a4f28419497f9722a3daafe3b4186f6b6457e090600090a35050565b80356001600160a01b038116811461196957600080fd5b919050565b60008060006060848603121561198357600080fd5b61198c84611952565b95602085013595506040909401359392505050565b6020808252825182820181905260009190848201906040850190845b818110156119d9578351835292840192918401916001016119bd565b50909695505050505050565b634e487b7160e01b600052604160045260246000fd5b600082601f830112611a0c57600080fd5b813567ffffffffffffffff80821115611a2757611a276119e5565b604051601f8301601f19908116603f01168101908282118183101715611a4f57611a4f6119e5565b81604052838152866020858801011115611a6857600080fd5b836020870160208301376000602085830101528094505050505092915050565b600060208284031215611a9a57600080fd5b813567ffffffffffffffff811115611ab157600080fd5b6117cc848285016119fb565b600060208284031215611acf57600080fd5b6106d782611952565b600060208284031215611aea57600080fd5b5035919050565b60005b83811015611b0c578181015183820152602001611af4565b50506000910152565b60008151808452611b2d816020860160208601611af1565b601f01601f19169290920160200192915050565b8981526001600160a01b0389811660208301528816604082015261012060608201819052600090611b748382018a611b15565b90508281036080840152611b888189611b15565b905082810360a0840152611b9c8188611b15565b60c0840196909652505091151560e08301521515610100909101529695505050505050565b60008060408385031215611bd457600080fd5b611bdd83611952565b946020939093013593505050565b8035801515811461196957600080fd5b600080600080600060a08688031215611c1357600080fd5b611c1c86611beb565b9450611c2a60208701611beb565b9350611c3860408701611beb565b9250611c4660608701611beb565b9150611c5460808701611beb565b90509295509295909350565b60008060008060808587031215611c7657600080fd5b611c7f85611952565b9350602085013567ffffffffffffffff80821115611c9c57600080fd5b611ca8888389016119fb565b94506040870135915080821115611cbe57600080fd5b611cca888389016119fb565b93506060870135915080821115611ce057600080fd5b50611ced878288016119fb565b91505092959194509250565b634e487b7160e01b600052601160045260246000fd5b80820180821115611d2257611d22611cf9565b92915050565b81810381811115611d2257611d22611cf9565b634e487b7160e01b600052603260045260246000fd5b600060018201611d6357611d63611cf9565b5060010190565b60008251611d7c818460208701611af1565b9190910192915050565b600181811c90821680611d9a57607f821691505b602082108103611dba57634e487b7160e01b600052602260045260246000fd5b50919050565b6020808252601b908201527f4e6f74696669636174696f6e20646f6573206e6f742065786973740000000000604082015260600190565b601f821115610ddd57600081815260208120601f850160051c81016020861015611e1e5750805b601f850160051c820191505b81811015611e3d57828155600101611e2a565b505050505050565b815167ffffffffffffffff811115611e5f57611e5f6119e5565b611e7381611e6d8454611d86565b84611df7565b602080601f831160018114611ea85760008415611e905750858301515b600019600386901b1c1916600185901b178555611e3d565b600085815260208120601f198616915b82811015611ed757888601518255948401946001909101908401611eb8565b5085821015611ef55787850151600019600388901b60f8161c191681555b5050505050600190811b01905550565b608081526000611f186080830187611b15565b8281036020840152611f2a8187611b15565b90508281036040840152611f3e8186611b15565b9150508260608301529594505050505056fefd8920244705e17d710db64cd8c9b122c72f334afd524657c436205a0e548b9aa2646970667358221220373da5b8e6bef16a29f39adb53003cae0fc50c095538b732d4bb77287c128ced64736f6c63430008130033",
  "linkReferences": {},
  "deployedLinkReferences": {}
}