{
  "_format": "hh-sol-artifact-1",
  "contractName": "SocialMessaging",
  "sourceName": "contracts/SocialMessaging.sol",
  "abi": [
    {
      "inputs": [],
      "stateMutability": "nonpayable",
      "type": "constructor"
    },
    {
      "anonymous": false,
      "inputs": [
        {
          "indexed": true,
          "internalType": "uint256",
          "name": "messageId",
          "type": "uint256"
        },
        {
          "indexed": true,
          "internalType": "address",
          "name": "sender",
          "type": "address"
        },
        {
          "indexed": true,
          "internalType": "address",
          "name": "recipient",
          "type": "address"
        }
      ],
      "name": "MessageDeleted",
      "type": "event"
    },
    {
      "anonymous": false,
      "inputs": [
        {
          "indexed": true,
          "internalType": "uint256",
          "name": "messageId",
          "type": "uint256"
        },
        {
          "indexed": true,
          "internalType": "address",
          "name": "reporter",
          "type": "address"
        },
        {
          "indexed": false,
          "internalType": "string",
          "name": "reason",
          "type": "string"
        }
      ],
      "name": "MessageReported",
      "type": "event"
    },
    {
      "anonymous": false,
      "inputs": [
        {
          "indexed": true,
          "internalType": "uint256",
          "name": "messageId",
          "type": "uint256"
        },
        {
          "indexed": true,
          "internalType": "address",
          "name": "sender",
          "type": "address"
        },
        {
          "indexed": true,
          "internalType": "address",
          "name": "recipient",
          "type": "address"
        },
        {
          "indexed": false,
          "internalType": "string",
          "name": "content",
          "type": "string"
        },
        {
          "indexed": false,
          "internalType": "uint256",
          "name": "timestamp",
          "type": "uint256"
        },
        {
          "indexed": false,
          "internalType": "string",
          "name": "messageType",
          "type": "string"
        }
      ],
      "name": "MessageSent",
      "type": "event"
    },
    {
      "anonymous": false,
      "inputs": [
        {
          "indexed": true,
          "internalType": "address",
          "name": "previousOwner",
          "type": "address"
        },
        {
          "indexed": true,
          "internalType": "address",
          "name": "newOwner",
          "type": "address"
        }
      ],
      "name": "OwnershipTransferred",
      "type": "event"
    },
    {
      "anonymous": false,
      "inputs": [
        {
          "indexed": true,
          "internalType": "address",
          "name": "blocker",
          "type": "address"
        },
        {
          "indexed": true,
          "internalType": "address",
          "name": "blockedUser",
          "type": "address"
        }
      ],
      "name": "UserBlocked",
      "type": "event"
    },
    {
      "anonymous": false,
      "inputs": [
        {
          "indexed": true,
          "internalType": "address",
          "name": "blocker",
          "type": "address"
        },
        {
          "indexed": true,
          "internalType": "address",
          "name": "blockedUser",
          "type": "address"
        }
      ],
      "name": "UserUnblocked",
      "type": "event"
    },
    {
      "inputs": [],
      "name": "MAX_BIO_LENGTH",
      "outputs": [
        {
          "internalType": "uint256",
          "name": "",
          "type": "uint256"
        }
      ],
      "stateMutability": "view",
      "type": "function"
    },
    {
      "inputs": [],
      "name": "MAX_MESSAGE_LENGTH",
      "outputs": [
        {
          "internalType": "uint256",
          "name": "",
          "type": "uint256"
        }
      ],
      "stateMutability": "view",
      "type": "function"
    },
    {
      "inputs": [],
      "name": "MAX_USERNAME_LENGTH",
      "outputs": [
        {
          "internalType": "uint256",
          "name": "",
          "type": "uint256"
        }
      ],
      "stateMutability": "view",
      "type": "function"
    },
    {
      "inputs": [],
      "name": "MESSAGE_FEE",
      "outputs": [
        {
          "internalType": "uint256",
          "name": "",
          "type": "uint256"
        }
      ],
      "stateMutability": "view",
      "type": "function"
    },
    {
      "inputs": [
        {
          "internalType": "address",
          "name": "_user",
          "type": "address"
        }
      ],
      "name": "blockUser",
      "outputs": [],
      "stateMutability": "nonpayable",
      "type": "function"
    },
    {
      "inputs": [
        {
          "internalType": "address",
          "name": "",
          "type": "address"
        },
        {
          "internalType": "address",
          "name": "",
          "type": "address"
        }
      ],
      "name": "blockedUsers",
      "outputs": [
        {
          "internalType": "bool",
          "name": "",
          "type": "bool"
        }
      ],
      "stateMutability": "view",
      "type": "function"
    },
    {
      "inputs": [
        {
          "internalType": "address",
          "name": "",
          "type": "address"
        },
        {
          "internalType": "address",
          "name": "",
          "type": "address"
        }
      ],
      "name": "conversationIds",
      "outputs": [
        {
          "internalType": "uint256",
          "name": "",
          "type": "uint256"
        }
      ],
      "stateMutability": "view",
      "type": "function"
    },
    {
      "inputs": [
        {
          "internalType": "uint256",
          "name": "",
          "type": "uint256"
        }
      ],
      "name": "conversations",
      "outputs": [
        {
          "internalType": "address",
          "name": "participant1",
          "type": "address"
        },
        {
          "internalType": "address",
          "name": "participant2",
          "type": "address"
        },
        {
          "internalType": "uint256",
          "name": "lastMessageId",
          "type": "uint256"
        },
        {
          "internalType": "uint256",
          "name": "createdAt",
          "type": "uint256"
        },
        {
          "internalType": "bool",
          "name": "isActive",
          "type": "bool"
        }
      ],
      "stateMutability": "view",
      "type": "function"
    },
    {
      "inputs": [
        {
          "internalType": "string",
          "name": "_username",
          "type": "string"
        },
        {
          "internalType": "string",
          "name": "_bio",
          "type": "string"
        },
        {
          "internalType": "string",
          "name": "_avatar",
          "type": "string"
        }
      ],
      "name": "createProfile",
      "outputs": [],
      "stateMutability": "nonpayable",
      "type": "function"
    },
    {
      "inputs": [
        {
          "internalType": "uint256",
          "name": "_messageId",
          "type": "uint256"
        }
      ],
      "name": "deleteMessage",
      "outputs": [],
      "stateMutability": "nonpayable",
      "type": "function"
    },
    {
      "inputs": [
        {
          "internalType": "address",
          "name": "_user",
          "type": "address"
        }
      ],
      "name": "followUser",
      "outputs": [],
      "stateMutability": "nonpayable",
      "type": "function"
    },
    {
      "inputs": [
        {
          "internalType": "address",
          "name": "_user1",
          "type": "address"
        },
        {
          "internalType": "address",
          "name": "_user2",
          "type": "address"
        },
        {
          "internalType": "uint256",
          "name": "_offset",
          "type": "uint256"
        },
        {
          "internalType": "uint256",
          "name": "_limit",
          "type": "uint256"
        }
      ],
      "name": "getConversation",
      "outputs": [
        {
          "internalType": "uint256[]",
          "name": "",
          "type": "uint256[]"
        }
      ],
      "stateMutability": "view",
      "type": "function"
    },
    {
      "inputs": [
        {
          "internalType": "uint256",
          "name": "_messageId",
          "type": "uint256"
        }
      ],
      "name": "getMessage",
      "outputs": [
        {
          "components": [
            {
              "internalType": "uint256",
              "name": "id",
              "type": "uint256"
            },
            {
              "internalType": "address",
              "name": "sender",
              "type": "address"
            },
            {
              "internalType": "address",
              "name": "recipient",
              "type": "address"
            },
            {
              "internalType": "string",
              "name": "content",
              "type": "string"
            },
            {
              "internalType": "uint256",
              "name": "timestamp",
              "type": "uint256"
            },
            {
              "internalType": "string",
              "name": "messageType",
              "type": "string"
            },
            {
              "internalType": "bool",
              "name": "isDeleted",
              "type": "bool"
            },
            {
              "internalType": "bool",
              "name": "isReported",
              "type": "bool"
            }
          ],
          "internalType": "struct SocialMessaging.Message",
          "name": "",
          "type": "tuple"
        }
      ],
      "stateMutability": "view",
      "type": "function"
    },
    {
      "inputs": [],
      "name": "getTotalMessageCount",
      "outputs": [
        {
          "internalType": "uint256",
          "name": "",
          "type": "uint256"
        }
      ],
      "stateMutability": "view",
      "type": "function"
    },
    {
      "inputs": [
        {
          "internalType": "address",
          "name": "_user",
          "type": "address"
        }
      ],
      "name": "getUserMessageCount",
      "outputs": [
        {
          "internalType": "uint256",
          "name": "",
          "type": "uint256"
        }
      ],
      "stateMutability": "view",
      "type": "function"
    },
    {
      "inputs": [
        {
          "internalType": "address",
          "name": "_user",
          "type": "address"
        },
        {
          "internalType": "uint256",
          "name": "_offset",
          "type": "uint256"
        },
        {
          "internalType": "uint256",
          "name": "_limit",
          "type": "uint256"
        }
      ],
      "name": "getUserMessages",
      "outputs": [
        {
          "internalType": "uint256[]",
          "name": "",
          "type": "uint256[]"
        }
      ],
      "stateMutability": "view",
      "type": "function"
    },
    {
      "inputs": [
        {
          "internalType": "address",
          "name": "_user",
          "type": "address"
        }
      ],
      "name": "getUserProfile",
      "outputs": [
        {
          "components": [
            {
              "internalType": "string",
              "name": "username",
              "type": "string"
            },
            {
              "internalType": "string",
              "name": "bio",
              "type": "string"
            },
            {
              "internalType": "string",
              "name": "avatar",
              "type": "string"
            },
            {
              "internalType": "bool",
              "name": "isActive",
              "type": "bool"
            },
            {
              "internalType": "uint256",
              "name": "joinedAt",
              "type": "uint256"
            },
            {
              "internalType": "uint256",
              "name": "lastSeen",
              "type": "uint256"
            }
          ],
          "internalType": "struct SocialMessaging.UserProfile",
          "name": "",
          "type": "tuple"
        }
      ],
      "stateMutability": "view",
      "type": "function"
    },
    {
      "inputs": [
        {
          "internalType": "address",
          "name": "",
          "type": "address"
        },
        {
          "internalType": "address",
          "name": "",
          "type": "address"
        }
      ],
      "name": "isFollowing",
      "outputs": [
        {
          "internalType": "bool",
          "name": "",
          "type": "bool"
        }
      ],
      "stateMutability": "view",
      "type": "function"
    },
    {
      "inputs": [
        {
          "internalType": "address",
          "name": "_blocker",
          "type": "address"
        },
        {
          "internalType": "address",
          "name": "_blocked",
          "type": "address"
        }
      ],
      "name": "isUserBlocked",
      "outputs": [
        {
          "internalType": "bool",
          "name": "",
          "type": "bool"
        }
      ],
      "stateMutability": "view",
      "type": "function"
    },
    {
      "inputs": [
        {
          "internalType": "address",
          "name": "_follower",
          "type": "address"
        },
        {
          "internalType": "address",
          "name": "_following",
          "type": "address"
        }
      ],
      "name": "isUserFollowing",
      "outputs": [
        {
          "internalType": "bool",
          "name": "",
          "type": "bool"
        }
      ],
      "stateMutability": "view",
      "type": "function"
    },
    {
      "inputs": [
        {
          "internalType": "uint256",
          "name": "",
          "type": "uint256"
        },
        {
          "internalType": "uint256",
          "name": "",
          "type": "uint256"
        }
      ],
      "name": "messageReports",
      "outputs": [
        {
          "internalType": "address",
          "name": "",
          "type": "address"
        }
      ],
      "stateMutability": "view",
      "type": "function"
    },
    {
      "inputs": [
        {
          "internalType": "uint256",
          "name": "",
          "type": "uint256"
        }
      ],
      "name": "messages",
      "outputs": [
        {
          "internalType": "uint256",
          "name": "id",
          "type": "uint256"
        },
        {
          "internalType": "address",
          "name": "sender",
          "type": "address"
        },
        {
          "internalType": "address",
          "name": "recipient",
          "type": "address"
        },
        {
          "internalType": "string",
          "name": "content",
          "type": "string"
        },
        {
          "internalType": "uint256",
          "name": "timestamp",
          "type": "uint256"
        },
        {
          "internalType": "string",
          "name": "messageType",
          "type": "string"
        },
        {
          "internalType": "bool",
          "name": "isDeleted",
          "type": "bool"
        },
        {
          "internalType": "bool",
          "name": "isReported",
          "type": "bool"
        }
      ],
      "stateMutability": "view",
      "type": "function"
    },
    {
      "inputs": [],
      "name": "owner",
      "outputs": [
        {
          "internalType": "address",
          "name": "",
          "type": "address"
        }
      ],
      "stateMutability": "view",
      "type": "function"
    },
    {
      "inputs": [],
      "name": "pause",
      "outputs": [],
      "stateMutability": "nonpayable",
      "type": "function"
    },
    {
      "inputs": [],
      "name": "renounceOwnership",
      "outputs": [],
      "stateMutability": "nonpayable",
      "type": "function"
    },
    {
      "inputs": [
        {
          "internalType": "uint256",
          "name": "_messageId",
          "type": "uint256"
        },
        {
          "internalType": "string",
          "name": "_reason",
          "type": "string"
        }
      ],
      "name": "reportMessage",
      "outputs": [],
      "stateMutability": "nonpayable",
      "type": "function"
    },
    {
      "inputs": [
        {
          "internalType": "address",
          "name": "_recipient",
          "type": "address"
        },
        {
          "internalType": "string",
          "name": "_content",
          "type": "string"
        },
        {
          "internalType": "string",
          "name": "_messageType",
          "type": "string"
        }
      ],
      "name": "sendMessage",
      "outputs": [],
      "stateMutability": "payable",
      "type": "function"
    },
    {
      "inputs": [
        {
          "internalType": "address",
          "name": "newOwner",
          "type": "address"
        }
      ],
      "name": "transferOwnership",
      "outputs": [],
      "stateMutability": "nonpayable",
      "type": "function"
    },
    {
      "inputs": [
        {
          "internalType": "address",
          "name": "_user",
          "type": "address"
        }
      ],
      "name": "unblockUser",
      "outputs": [],
      "stateMutability": "nonpayable",
      "type": "function"
    },
    {
      "inputs": [
        {
          "internalType": "address",
          "name": "_user",
          "type": "address"
        }
      ],
      "name": "unfollowUser",
      "outputs": [],
      "stateMutability": "nonpayable",
      "type": "function"
    },
    {
      "inputs": [
        {
          "internalType": "address",
          "name": "",
          "type": "address"
        },
        {
          "internalType": "uint256",
          "name": "",
          "type": "uint256"
        }
      ],
      "name": "userConversations",
      "outputs": [
        {
          "internalType": "uint256",
          "name": "",
          "type": "uint256"
        }
      ],
      "stateMutability": "view",
      "type": "function"
    },
    {
      "inputs": [
        {
          "internalType": "address",
          "name": "",
          "type": "address"
        },
        {
          "internalType": "uint256",
          "name": "",
          "type": "uint256"
        }
      ],
      "name": "userMessages",
      "outputs": [
        {
          "internalType": "uint256",
          "name": "",
          "type": "uint256"
        }
      ],
      "stateMutability": "view",
      "type": "function"
    },
    {
      "inputs": [
        {
          "internalType": "address",
          "name": "",
          "type": "address"
        }
      ],
      "name": "userProfiles",
      "outputs": [
        {
          "internalType": "string",
          "name": "username",
          "type": "string"
        },
        {
          "internalType": "string",
          "name": "bio",
          "type": "string"
        },
        {
          "internalType": "string",
          "name": "avatar",
          "type": "string"
        },
        {
          "internalType": "bool",
          "name": "isActive",
          "type": "bool"
        },
        {
          "internalType": "uint256",
          "name": "joinedAt",
          "type": "uint256"
        },
        {
          "internalType": "uint256",
          "name": "lastSeen",
          "type": "uint256"
        }
      ],
      "stateMutability": "view",
      "type": "function"
    },
    {
      "inputs": [],
      "name": "withdraw",
      "outputs": [],
      "stateMutability": "nonpayable",
      "type": "function"
    }
  ],
  "bytecode": "0x60806040523480156200001157600080fd5b506001600055620000223362000046565b62000031600280546001019055565b62000040600380546001019055565b62000098565b600180546001600160a01b038381166001600160a01b0319831681179093556040519116919082907f8be0079c531659141344cd1fd0a4f28419497f9722a3daafe3b4186f6b6457e090600090a35050565b612a3b80620000a86000396000f3fe6080604052600436106101f95760003560e01c8063875b16d61161010d578063b888690a116100a0578063dd91150b1161006f578063dd91150b14610642578063e79a984f146106d0578063f107cfcb14610708578063f28355c814610728578063f2fde38b1461074257600080fd5b8063b888690a146105a4578063c477d7f7146105c4578063c7e1a8f0146105d9578063ccfd55e71461062257600080fd5b8063987ee156116100dc578063987ee1561461050757806399ec3a4214610534578063a70806f71461056f578063b021352a1461058f57600080fd5b8063875b16d6146104895780638da5cb5b146104a95780639428cda3146104c75780639841c82c146104e757600080fd5b80633ccfd60b116101905780636fb6df431161015f5780636fb6df43146103e4578063715018a6146103f7578063817f294b1461040c5780638456cb591461044757806386f79edb1461045c57600080fd5b80633ccfd60b1461034a5780633da013251461035f57806357b9222f1461037f5780636db0f5ba146103ac57600080fd5b80632b659bfb116101cc5780632b659bfb146102a05780633180a3b1146102d6578063332d56d7146102f857806339d319e51461032a57600080fd5b8063021aa442146101fe5780630d80fefd146102335780631cd896c1146102675780632a0272111461028a575b600080fd5b34801561020a57600080fd5b5061021e61021936600461224b565b610762565b60405190151581526020015b60405180910390f35b34801561023f57600080fd5b5061025361024e36600461227e565b610792565b60405161022a9897969594939291906122dd565b34801561027357600080fd5b5061027c603281565b60405190815260200161022a565b34801561029657600080fd5b5061027c6103e881565b3480156102ac57600080fd5b5061027c6102bb366004612347565b6001600160a01b031660009081526008602052604090205490565b3480156102e257600080fd5b506102f66102f1366004612405565b6108f7565b005b34801561030457600080fd5b50610318610313366004612347565b610a9c565b60405161022a9695949392919061244c565b34801561033657600080fd5b506102f6610345366004612347565b610c6e565b34801561035657600080fd5b506102f6610d82565b34801561036b57600080fd5b506102f661037a366004612347565b610e8d565b34801561038b57600080fd5b5061039f61039a3660046124a4565b610ff9565b60405161022a91906124d7565b3480156103b857600080fd5b506103cc6103c736600461251b565b611157565b6040516001600160a01b03909116815260200161022a565b6102f66103f236600461253d565b61118f565b34801561040357600080fd5b506102f66115ea565b34801561041857600080fd5b5061021e61042736600461224b565b600660209081526000928352604080842090915290825290205460ff1681565b34801561045357600080fd5b506102f66115fc565b34801561046857600080fd5b5061047c61047736600461227e565b611604565b60405161022a91906125b1565b34801561049557600080fd5b5061039f6104a436600461265b565b611818565b3480156104b557600080fd5b506001546001600160a01b03166103cc565b3480156104d357600080fd5b5061027c6104e236600461269d565b611877565b3480156104f357600080fd5b506102f66105023660046126c7565b6118a8565b34801561051357600080fd5b50610527610522366004612347565b6119e7565b60405161022a9190612716565b34801561054057600080fd5b5061021e61054f36600461224b565b600760209081526000928352604080842090915290825290205460ff1681565b34801561057b57600080fd5b506102f661058a366004612347565b611c24565b34801561059b57600080fd5b5061027c611d39565b3480156105b057600080fd5b506102f66105bf36600461227e565b611d55565b3480156105d057600080fd5b5061027c60c881565b3480156105e557600080fd5b5061021e6105f436600461224b565b6001600160a01b03918216600090815260066020908152604080832093909416825291909152205460ff1690565b34801561062e57600080fd5b5061027c61063d36600461269d565b611e9f565b34801561064e57600080fd5b5061069b61065d36600461227e565b600a60205260009081526040902080546001820154600283015460038401546004909401546001600160a01b03938416949390921692909160ff1685565b604080516001600160a01b0396871681529590941660208601529284019190915260608301521515608082015260a00161022a565b3480156106dc57600080fd5b5061027c6106eb36600461224b565b600960209081526000928352604080842090915290825290205481565b34801561071457600080fd5b506102f6610723366004612347565b611ebb565b34801561073457600080fd5b5061027c6502ba7def300081565b34801561074e57600080fd5b506102f661075d366004612347565b611fb4565b6001600160a01b0380831660009081526007602090815260408083209385168352929052205460ff165b92915050565b600460205260009081526040902080546001820154600283015460038401805493946001600160a01b039384169493909216926107ce9061279b565b80601f01602080910402602001604051908101604052809291908181526020018280546107fa9061279b565b80156108475780601f1061081c57610100808354040283529160200191610847565b820191906000526020600020905b81548152906001019060200180831161082a57829003601f168201915b5050505050908060040154908060050180546108629061279b565b80601f016020809104026020016040519081016040528092919081815260200182805461088e9061279b565b80156108db5780601f106108b0576101008083540402835291602001916108db565b820191906000526020600020905b8154815290600101906020018083116108be57829003601f168201915b5050506006909301549192505060ff8082169161010090041688565b8160008111801561090a57506002548111155b61092f5760405162461bcd60e51b8152600401610926906127cf565b60405180910390fd5b600083815260046020526040902060028101546001600160a01b0316331480610964575060018101546001600160a01b031633145b6109be5760405162461bcd60e51b815260206004820152602560248201527f4e6f7420617574686f72697a656420746f207265706f72742074686973206d65604482015264737361676560d81b6064820152608401610926565b6006810154610100900460ff1615610a185760405162461bcd60e51b815260206004820152601860248201527f4d65737361676520616c7265616479207265706f7274656400000000000000006044820152606401610926565b60068101805461ff0019166101001790556000848152600c602090815260408083208054600181018255908452919092200180546001600160a01b03191633908117909155905185907f58f15c1a004d96ba2ef6700561771100252c862563d37b0504062f3529d7b2b690610a8e9087906127ff565b60405180910390a350505050565b600560205260009081526040902080548190610ab79061279b565b80601f0160208091040260200160405190810160405280929190818152602001828054610ae39061279b565b8015610b305780601f10610b0557610100808354040283529160200191610b30565b820191906000526020600020905b815481529060010190602001808311610b1357829003601f168201915b505050505090806001018054610b459061279b565b80601f0160208091040260200160405190810160405280929190818152602001828054610b719061279b565b8015610bbe5780601f10610b9357610100808354040283529160200191610bbe565b820191906000526020600020905b815481529060010190602001808311610ba157829003601f168201915b505050505090806002018054610bd39061279b565b80601f0160208091040260200160405190810160405280929190818152602001828054610bff9061279b565b8015610c4c5780601f10610c2157610100808354040283529160200191610c4c565b820191906000526020600020905b815481529060010190602001808311610c2f57829003601f168201915b5050505060038301546004840154600590940154929360ff9091169290915086565b3360009081526005602052604090206003015460ff16610ca05760405162461bcd60e51b815260040161092690612812565b6001600160a01b038116610cc65760405162461bcd60e51b81526004016109269061283b565b3360009081526006602090815260408083206001600160a01b038516845290915290205460ff16610d2c5760405162461bcd60e51b815260206004820152601060248201526f155cd95c881b9bdd08189b1bd8dad95960821b6044820152606401610926565b3360008181526006602090815260408083206001600160a01b0386168085529252808320805460ff19169055519092917fdabcca1ac97c7d80dd63b7bd70c95d1552b8a24b11a129187f4ad5da004be19f91a350565b610d8a61202d565b610d92612087565b4780610dd95760405162461bcd60e51b81526020600482015260166024820152754e6f2062616c616e636520746f20776974686472617760501b6044820152606401610926565b6000610ded6001546001600160a01b031690565b6001600160a01b03168260405160006040518083038185875af1925050503d8060008114610e37576040519150601f19603f3d011682016040523d82523d6000602084013e610e3c565b606091505b5050905080610e7f5760405162461bcd60e51b815260206004820152600f60248201526e15da5d1a191c985dc819985a5b1959608a1b6044820152606401610926565b5050610e8b6001600055565b565b3360009081526005602052604090206003015460ff16610ebf5760405162461bcd60e51b815260040161092690612812565b6001600160a01b038116610ee55760405162461bcd60e51b81526004016109269061283b565b336001600160a01b03821603610f355760405162461bcd60e51b815260206004820152601560248201527421b0b73737ba10313637b1b5903cb7bab939b2b63360591b6044820152606401610926565b3360009081526006602090815260408083206001600160a01b038516845290915290205460ff1615610fa05760405162461bcd60e51b8152602060048201526014602482015273155cd95c88185b1c9958591e48189b1bd8dad95960621b6044820152606401610926565b3360008181526006602090815260408083206001600160a01b0386168085529252808320805460ff19166001179055519092917f3d76c88b04bca9304ddabcfabdd594e649c10be33d0519e4b9842431cbe57e2c91a350565b6001600160a01b038316600090815260086020908152604080832080548251818502810185019093528083526060949383018282801561105857602002820191906000526020600020905b815481526020019060010190808311611044575b50508351939450505081861090506110825750506040805160008152602081019091529050611150565b600061108e8587612877565b90508181111561109b5750805b60006110a7878361288a565b67ffffffffffffffff8111156110bf576110bf612362565b6040519080825280602002602001820160405280156110e8578160200160208202803683370190505b509050865b82811015611149578481815181106111075761110761289d565b602002602001015182898361111c919061288a565b8151811061112c5761112c61289d565b602090810291909101015280611141816128b3565b9150506110ed565b5093505050505b9392505050565b600c602052816000526040600020818154811061117357600080fd5b6000918252602090912001546001600160a01b03169150829050565b611197612087565b3360009081526005602052604090206003015460ff166111c95760405162461bcd60e51b815260040161092690612812565b816103e8815111156112105760405162461bcd60e51b815260206004820152601060248201526f4d65737361676520746f6f206c6f6e6760801b6044820152606401610926565b60008151116112615760405162461bcd60e51b815260206004820152601760248201527f4d6573736167652063616e6e6f7420626520656d7074790000000000000000006044820152606401610926565b6001600160a01b0384166000908152600660209081526040808320338452909152902054849060ff16156112d75760405162461bcd60e51b815260206004820152601c60248201527f596f752061726520626c6f636b656420627920746869732075736572000000006044820152606401610926565b3360009081526006602090815260408083206001600160a01b038516845290915290205460ff161561134b5760405162461bcd60e51b815260206004820152601a60248201527f596f75206861766520626c6f636b6564207468697320757365720000000000006044820152606401610926565b6001600160a01b0385166113955760405162461bcd60e51b8152602060048201526011602482015270125b9d985b1a59081c9958da5c1a595b9d607a1b6044820152606401610926565b336001600160a01b038616036113ed5760405162461bcd60e51b815260206004820152601f60248201527f43616e6e6f742073656e64206d65737361676520746f20796f757273656c66006044820152606401610926565b6001600160a01b03851660009081526005602052604090206003015460ff1661144f5760405162461bcd60e51b8152602060048201526014602482015273526563697069656e74206e6f742061637469766560601b6044820152606401610926565b341561149e576502ba7def300034101561149e5760405162461bcd60e51b815260206004820152601060248201526f496e73756666696369656e742066656560801b6044820152606401610926565b60006114a960025490565b90506114b9600280546001019055565b6000818152600460205260409020818155600181018054336001600160a01b0319918216179091556002820180549091166001600160a01b03891617905560038101611505878261291a565b504260048201556005810161151a868261291a565b5060068101805461ffff19169055336000818152600860209081526040808320805460018181018355918552838520018790556001600160a01b038c1684529083208054918201815583529120018390556115769088846120e0565b3360008181526005602081905260409182902042910181905590516001600160a01b038a16929185917f385809d9d129867403249b4d30bc754915443b6952657f1fcb750fba3922cf14916115cf918c91908c906129da565b60405180910390a4505050506115e56001600055565b505050565b6115f261202d565b610e8b60006121dd565b610e8b61202d565b604080516101008101825260008082526020820181905291810182905260608082018190526080820183905260a082015260c0810182905260e08101919091528160008111801561165757506002548111155b6116735760405162461bcd60e51b8152600401610926906127cf565b6000838152600460209081526040918290208251610100810184528154815260018201546001600160a01b03908116938201939093526002820154909216928201929092526003820180549192916060840191906116d09061279b565b80601f01602080910402602001604051908101604052809291908181526020018280546116fc9061279b565b80156117495780601f1061171e57610100808354040283529160200191611749565b820191906000526020600020905b81548152906001019060200180831161172c57829003601f168201915b505050505081526020016004820154815260200160058201805461176c9061279b565b80601f01602080910402602001604051908101604052809291908181526020018280546117989061279b565b80156117e55780601f106117ba576101008083540402835291602001916117e5565b820191906000526020600020905b8154815290600101906020018083116117c857829003601f168201915b50505091835250506006919091015460ff8082161515602084015261010090910416151560409091015291505b50919050565b6001600160a01b03808516600090815260096020908152604080832093871683529290529081205460609181900361186057505060408051600081526020810190915261186f565b61186b868585610ff9565b9150505b949350505050565b6008602052816000526040600020818154811061189357600080fd5b90600052602060002001600091509150505481565b6032835111156118ee5760405162461bcd60e51b8152602060048201526011602482015270557365726e616d6520746f6f206c6f6e6760781b6044820152606401610926565b60c88251111561192f5760405162461bcd60e51b815260206004820152600c60248201526b42696f20746f6f206c6f6e6760a01b6044820152606401610926565b60008351116119805760405162461bcd60e51b815260206004820152601860248201527f557365726e616d652063616e6e6f7420626520656d70747900000000000000006044820152606401610926565b33600090815260056020526040812060048101549091036119a2574260048201555b806119ad858261291a565b50600181016119bc848261291a565b50600281016119cb838261291a565b5060038101805460ff1916600117905542600590910155505050565b611a226040518060c0016040528060608152602001606081526020016060815260200160001515815260200160008152602001600081525090565b6001600160a01b03821660009081526005602052604090819020815160c08101909252805482908290611a549061279b565b80601f0160208091040260200160405190810160405280929190818152602001828054611a809061279b565b8015611acd5780601f10611aa257610100808354040283529160200191611acd565b820191906000526020600020905b815481529060010190602001808311611ab057829003601f168201915b50505050508152602001600182018054611ae69061279b565b80601f0160208091040260200160405190810160405280929190818152602001828054611b129061279b565b8015611b5f5780601f10611b3457610100808354040283529160200191611b5f565b820191906000526020600020905b815481529060010190602001808311611b4257829003601f168201915b50505050508152602001600282018054611b789061279b565b80601f0160208091040260200160405190810160405280929190818152602001828054611ba49061279b565b8015611bf15780601f10611bc657610100808354040283529160200191611bf1565b820191906000526020600020905b815481529060010190602001808311611bd457829003601f168201915b5050509183525050600382015460ff16151560208201526004820154604082015260059091015460609091015292915050565b3360009081526005602052604090206003015460ff16611c565760405162461bcd60e51b815260040161092690612812565b6001600160a01b038116611c7c5760405162461bcd60e51b81526004016109269061283b565b336001600160a01b03821603611ccd5760405162461bcd60e51b815260206004820152601660248201527521b0b73737ba103337b63637bb903cb7bab939b2b63360511b6044820152606401610926565b6001600160a01b03811660009081526005602052604090206003015460ff16611d085760405162461bcd60e51b815260040161092690612812565b3360009081526007602090815260408083206001600160a01b0394909416835292905220805460ff19166001179055565b60006001611d4660025490565b611d50919061288a565b905090565b80600081118015611d6857506002548111155b611d845760405162461bcd60e51b8152600401610926906127cf565b600082815260046020526040902060018101546001600160a01b03163314611dee5760405162461bcd60e51b815260206004820152601e60248201527f4f6e6c792073656e6465722063616e2064656c657465206d65737361676500006044820152606401610926565b600681015460ff1615611e435760405162461bcd60e51b815260206004820152601760248201527f4d65737361676520616c72656164792064656c657465640000000000000000006044820152606401610926565b60068101805460ff191660019081179091556002820154908201546040516001600160a01b0392831692919091169085907fb684871d119f615d886d7cdd32615ae3d8980e750ea5dce958d07d5b5866ea0a90600090a4505050565b600b602052816000526040600020818154811061189357600080fd5b3360009081526005602052604090206003015460ff16611eed5760405162461bcd60e51b815260040161092690612812565b6001600160a01b038116611f135760405162461bcd60e51b81526004016109269061283b565b3360009081526007602090815260408083206001600160a01b038516845290915290205460ff16611f865760405162461bcd60e51b815260206004820152601760248201527f4e6f7420666f6c6c6f77696e67207468697320757365720000000000000000006044820152606401610926565b3360009081526007602090815260408083206001600160a01b0394909416835292905220805460ff19169055565b611fbc61202d565b6001600160a01b0381166120215760405162461bcd60e51b815260206004820152602660248201527f4f776e61626c653a206e6577206f776e657220697320746865207a65726f206160448201526564647265737360d01b6064820152608401610926565b61202a816121dd565b50565b6001546001600160a01b03163314610e8b5760405162461bcd60e51b815260206004820181905260248201527f4f776e61626c653a2063616c6c6572206973206e6f7420746865206f776e65726044820152606401610926565b6002600054036120d95760405162461bcd60e51b815260206004820152601f60248201527f5265656e7472616e637947756172643a207265656e7472616e742063616c6c006044820152606401610926565b6002600055565b6001600160a01b038084166000908152600960209081526040808320938616835292905290812054908190036121c7575060038054600181019091556000818152600a6020908152604080832080546001600160a01b03808a166001600160a01b03199283168117845560018085018054938c169390941683179093554260038501556004909301805460ff191683179055828652600980865284872082885286528487208890558552838620928652918452828520869055600b845282852080548083018255908652848620018690559084529083208054918201815583529120018190555b6000908152600a60205260409020600201555050565b600180546001600160a01b038381166001600160a01b0319831681179093556040519116919082907f8be0079c531659141344cd1fd0a4f28419497f9722a3daafe3b4186f6b6457e090600090a35050565b80356001600160a01b038116811461224657600080fd5b919050565b6000806040838503121561225e57600080fd5b6122678361222f565b91506122756020840161222f565b90509250929050565b60006020828403121561229057600080fd5b5035919050565b6000815180845260005b818110156122bd576020818501810151868301820152016122a1565b506000602082860101526020601f19601f83011685010191505092915050565b8881526001600160a01b038881166020830152871660408201526101006060820181905260009061231083820189612297565b905086608084015282810360a084015261232a8187612297565b94151560c0840152505090151560e0909101529695505050505050565b60006020828403121561235957600080fd5b6111508261222f565b634e487b7160e01b600052604160045260246000fd5b600082601f83011261238957600080fd5b813567ffffffffffffffff808211156123a4576123a4612362565b604051601f8301601f19908116603f011681019082821181831017156123cc576123cc612362565b816040528381528660208588010111156123e557600080fd5b836020870160208301376000602085830101528094505050505092915050565b6000806040838503121561241857600080fd5b82359150602083013567ffffffffffffffff81111561243657600080fd5b61244285828601612378565b9150509250929050565b60c08152600061245f60c0830189612297565b82810360208401526124718189612297565b905082810360408401526124858188612297565b95151560608401525050608081019290925260a0909101529392505050565b6000806000606084860312156124b957600080fd5b6124c28461222f565b95602085013595506040909401359392505050565b6020808252825182820181905260009190848201906040850190845b8181101561250f578351835292840192918401916001016124f3565b50909695505050505050565b6000806040838503121561252e57600080fd5b50508035926020909101359150565b60008060006060848603121561255257600080fd5b61255b8461222f565b9250602084013567ffffffffffffffff8082111561257857600080fd5b61258487838801612378565b9350604086013591508082111561259a57600080fd5b506125a786828701612378565b9150509250925092565b602081528151602082015260018060a01b036020830151166040820152600060408301516125ea60608401826001600160a01b03169052565b506060830151610100806080850152612607610120850183612297565b9150608085015160a085015260a0850151601f198584030160c086015261262e8382612297565b92505060c085015161264460e086018215159052565b5060e0850151801515858301525090949350505050565b6000806000806080858703121561267157600080fd5b61267a8561222f565b93506126886020860161222f565b93969395505050506040820135916060013590565b600080604083850312156126b057600080fd5b6126b98361222f565b946020939093013593505050565b6000806000606084860312156126dc57600080fd5b833567ffffffffffffffff808211156126f457600080fd5b61270087838801612378565b9450602086013591508082111561257857600080fd5b602081526000825160c0602084015261273260e0840182612297565b90506020840151601f19808584030160408601526127508383612297565b925060408601519150808584030160608601525061276e8282612297565b915050606084015115156080840152608084015160a084015260a084015160c08401528091505092915050565b600181811c908216806127af57607f821691505b60208210810361181257634e487b7160e01b600052602260045260246000fd5b60208082526016908201527513595cdcd859d948191bd95cc81b9bdd08195e1a5cdd60521b604082015260600190565b6020815260006111506020830184612297565b6020808252600f908201526e55736572206e6f742061637469766560881b604082015260600190565b6020808252600c908201526b24b73b30b634b2103ab9b2b960a11b604082015260600190565b634e487b7160e01b600052601160045260246000fd5b8082018082111561078c5761078c612861565b8181038181111561078c5761078c612861565b634e487b7160e01b600052603260045260246000fd5b6000600182016128c5576128c5612861565b5060010190565b601f8211156115e557600081815260208120601f850160051c810160208610156128f35750805b601f850160051c820191505b81811015612912578281556001016128ff565b505050505050565b815167ffffffffffffffff81111561293457612934612362565b61294881612942845461279b565b846128cc565b602080601f83116001811461297d57600084156129655750858301515b600019600386901b1c1916600185901b178555612912565b600085815260208120601f198616915b828110156129ac5788860151825594840194600190910190840161298d565b50858210156129ca5787850151600019600388901b60f8161c191681555b5050505050600190811b01905550565b6060815260006129ed6060830186612297565b846020840152828103604084015261186b818561229756fea26469706673582212209149f81976b6345ac42f1bc8be4e4d77c6dd9b254c4de056d0c174bdf6b8c62164736f6c63430008130033",
  "linkReferences": {},
  "deployedLinkReferences": {}
}