{
  "_format": "hh-sol-artifact-1",
  "contractName": "Utilities",
  "sourceName": "contracts/Utilities.sol",
  "abi": [
    {
      "inputs": [],
      "stateMutability": "nonpayable",
      "type": "constructor"
    },
    {
      "anonymous": false,
      "inputs": [
        {
          "indexed": true,
          "internalType": "address",
          "name": "user",
          "type": "address"
        },
        {
          "indexed": false,
          "internalType": "uint256",
          "name": "itemCount",
          "type": "uint256"
        },
        {
          "indexed": false,
          "internalType": "uint256",
          "name": "totalGasUsed",
          "type": "uint256"
        }
      ],
      "name": "BatchProcessed",
      "type": "event"
    },
    {
      "anonymous": false,
      "inputs": [
        {
          "indexed": true,
          "internalType": "address",
          "name": "admin",
          "type": "address"
        },
        {
          "indexed": false,
          "internalType": "uint256",
          "name": "timestamp",
          "type": "uint256"
        }
      ],
      "name": "EmergencyPause",
      "type": "event"
    },
    {
      "anonymous": false,
      "inputs": [
        {
          "indexed": true,
          "internalType": "address",
          "name": "admin",
          "type": "address"
        },
        {
          "indexed": false,
          "internalType": "uint256",
          "name": "timestamp",
          "type": "uint256"
        }
      ],
      "name": "EmergencyUnpause",
      "type": "event"
    },
    {
      "anonymous": false,
      "inputs": [
        {
          "indexed": true,
          "internalType": "address",
          "name": "user",
          "type": "address"
        },
        {
          "indexed": false,
          "internalType": "uint256",
          "name": "originalGas",
          "type": "uint256"
        },
        {
          "indexed": false,
          "internalType": "uint256",
          "name": "optimizedGas",
          "type": "uint256"
        },
        {
          "indexed": false,
          "internalType": "uint256",
          "name": "savings",
          "type": "uint256"
        }
      ],
      "name": "GasOptimized",
      "type": "event"
    },
    {
      "anonymous": false,
      "inputs": [
        {
          "indexed": true,
          "internalType": "address",
          "name": "previousOwner",
          "type": "address"
        },
        {
          "indexed": true,
          "internalType": "address",
          "name": "newOwner",
          "type": "address"
        }
      ],
      "name": "OwnershipTransferred",
      "type": "event"
    },
    {
      "inputs": [],
      "name": "EMERGENCY_PAUSE_DURATION",
      "outputs": [
        {
          "internalType": "uint256",
          "name": "",
          "type": "uint256"
        }
      ],
      "stateMutability": "view",
      "type": "function"
    },
    {
      "inputs": [],
      "name": "GAS_LIMIT_BUFFER",
      "outputs": [
        {
          "internalType": "uint256",
          "name": "",
          "type": "uint256"
        }
      ],
      "stateMutability": "view",
      "type": "function"
    },
    {
      "inputs": [],
      "name": "MAX_BATCH_SIZE",
      "outputs": [
        {
          "internalType": "uint256",
          "name": "",
          "type": "uint256"
        }
      ],
      "stateMutability": "view",
      "type": "function"
    },
    {
      "inputs": [
        {
          "internalType": "address",
          "name": "_token",
          "type": "address"
        },
        {
          "internalType": "address",
          "name": "_spender",
          "type": "address"
        },
        {
          "internalType": "uint256",
          "name": "_amount",
          "type": "uint256"
        }
      ],
      "name": "approve",
      "outputs": [],
      "stateMutability": "nonpayable",
      "type": "function"
    },
    {
      "inputs": [
        {
          "internalType": "address",
          "name": "_contract",
          "type": "address"
        }
      ],
      "name": "authorizeContract",
      "outputs": [],
      "stateMutability": "nonpayable",
      "type": "function"
    },
    {
      "inputs": [
        {
          "internalType": "address",
          "name": "",
          "type": "address"
        }
      ],
      "name": "authorizedContracts",
      "outputs": [
        {
          "internalType": "bool",
          "name": "",
          "type": "bool"
        }
      ],
      "stateMutability": "view",
      "type": "function"
    },
    {
      "inputs": [
        {
          "internalType": "address",
          "name": "_user",
          "type": "address"
        }
      ],
      "name": "calculateGasSavings",
      "outputs": [
        {
          "internalType": "uint256",
          "name": "totalSavings",
          "type": "uint256"
        },
        {
          "internalType": "uint256",
          "name": "averageSavings",
          "type": "uint256"
        }
      ],
      "stateMutability": "view",
      "type": "function"
    },
    {
      "inputs": [
        {
          "internalType": "address",
          "name": "_contract",
          "type": "address"
        }
      ],
      "name": "emergencyPause",
      "outputs": [],
      "stateMutability": "nonpayable",
      "type": "function"
    },
    {
      "inputs": [
        {
          "internalType": "address",
          "name": "_contract",
          "type": "address"
        }
      ],
      "name": "emergencyUnpause",
      "outputs": [],
      "stateMutability": "nonpayable",
      "type": "function"
    },
    {
      "inputs": [
        {
          "internalType": "address",
          "name": "_target",
          "type": "address"
        },
        {
          "internalType": "bytes",
          "name": "_data",
          "type": "bytes"
        },
        {
          "internalType": "uint256",
          "name": "_value",
          "type": "uint256"
        }
      ],
      "name": "estimateGas",
      "outputs": [
        {
          "internalType": "uint256",
          "name": "estimatedGas",
          "type": "uint256"
        }
      ],
      "stateMutability": "view",
      "type": "function"
    },
    {
      "inputs": [
        {
          "components": [
            {
              "internalType": "address",
              "name": "target",
              "type": "address"
            },
            {
              "internalType": "bytes",
              "name": "data",
              "type": "bytes"
            },
            {
              "internalType": "uint256",
              "name": "value",
              "type": "uint256"
            },
            {
              "internalType": "bool",
              "name": "success",
              "type": "bool"
            },
            {
              "internalType": "bytes",
              "name": "returnData",
              "type": "bytes"
            }
          ],
          "internalType": "struct Utilities.BatchOperation[]",
          "name": "_operations",
          "type": "tuple[]"
        }
      ],
      "name": "executeBatch",
      "outputs": [
        {
          "components": [
            {
              "internalType": "address",
              "name": "target",
              "type": "address"
            },
            {
              "internalType": "bytes",
              "name": "data",
              "type": "bytes"
            },
            {
              "internalType": "uint256",
              "name": "value",
              "type": "uint256"
            },
            {
              "internalType": "bool",
              "name": "success",
              "type": "bool"
            },
            {
              "internalType": "bytes",
              "name": "returnData",
              "type": "bytes"
            }
          ],
          "internalType": "struct Utilities.BatchOperation[]",
          "name": "results",
          "type": "tuple[]"
        }
      ],
      "stateMutability": "payable",
      "type": "function"
    },
    {
      "inputs": [
        {
          "internalType": "address",
          "name": "",
          "type": "address"
        },
        {
          "internalType": "uint256",
          "name": "",
          "type": "uint256"
        }
      ],
      "name": "gasEstimates",
      "outputs": [
        {
          "internalType": "uint256",
          "name": "gasUsed",
          "type": "uint256"
        },
        {
          "internalType": "uint256",
          "name": "gasPrice",
          "type": "uint256"
        },
        {
          "internalType": "uint256",
          "name": "totalCost",
          "type": "uint256"
        },
        {
          "internalType": "uint256",
          "name": "timestamp",
          "type": "uint256"
        }
      ],
      "stateMutability": "view",
      "type": "function"
    },
    {
      "inputs": [
        {
          "internalType": "address",
          "name": "_token",
          "type": "address"
        },
        {
          "internalType": "address",
          "name": "_account",
          "type": "address"
        }
      ],
      "name": "getBalance",
      "outputs": [
        {
          "internalType": "uint256",
          "name": "balance",
          "type": "uint256"
        }
      ],
      "stateMutability": "view",
      "type": "function"
    },
    {
      "inputs": [
        {
          "internalType": "address",
          "name": "_contract",
          "type": "address"
        }
      ],
      "name": "getContractInfo",
      "outputs": [
        {
          "internalType": "bool",
          "name": "hasCode",
          "type": "bool"
        },
        {
          "internalType": "bool",
          "name": "isAuthorized",
          "type": "bool"
        },
        {
          "internalType": "bool",
          "name": "_isPaused",
          "type": "bool"
        }
      ],
      "stateMutability": "view",
      "type": "function"
    },
    {
      "inputs": [
        {
          "internalType": "address",
          "name": "_user",
          "type": "address"
        },
        {
          "internalType": "uint256",
          "name": "_offset",
          "type": "uint256"
        },
        {
          "internalType": "uint256",
          "name": "_limit",
          "type": "uint256"
        }
      ],
      "name": "getGasEstimates",
      "outputs": [
        {
          "components": [
            {
              "internalType": "uint256",
              "name": "gasUsed",
              "type": "uint256"
            },
            {
              "internalType": "uint256",
              "name": "gasPrice",
              "type": "uint256"
            },
            {
              "internalType": "uint256",
              "name": "totalCost",
              "type": "uint256"
            },
            {
              "internalType": "uint256",
              "name": "timestamp",
              "type": "uint256"
            }
          ],
          "internalType": "struct Utilities.GasEstimate[]",
          "name": "estimates",
          "type": "tuple[]"
        }
      ],
      "stateMutability": "view",
      "type": "function"
    },
    {
      "inputs": [
        {
          "internalType": "address",
          "name": "_address",
          "type": "address"
        }
      ],
      "name": "isContract",
      "outputs": [
        {
          "internalType": "bool",
          "name": "",
          "type": "bool"
        }
      ],
      "stateMutability": "view",
      "type": "function"
    },
    {
      "inputs": [
        {
          "internalType": "address",
          "name": "",
          "type": "address"
        }
      ],
      "name": "isPaused",
      "outputs": [
        {
          "internalType": "bool",
          "name": "",
          "type": "bool"
        }
      ],
      "stateMutability": "view",
      "type": "function"
    },
    {
      "inputs": [
        {
          "components": [
            {
              "internalType": "address",
              "name": "target",
              "type": "address"
            },
            {
              "internalType": "bytes",
              "name": "data",
              "type": "bytes"
            },
            {
              "internalType": "uint256",
              "name": "value",
              "type": "uint256"
            },
            {
              "internalType": "bool",
              "name": "success",
              "type": "bool"
            },
            {
              "internalType": "bytes",
              "name": "returnData",
              "type": "bytes"
            }
          ],
          "internalType": "struct Utilities.BatchOperation[]",
          "name": "_operations",
          "type": "tuple[]"
        }
      ],
      "name": "optimizeGasUsage",
      "outputs": [
        {
          "components": [
            {
              "internalType": "address",
              "name": "target",
              "type": "address"
            },
            {
              "internalType": "bytes",
              "name": "data",
              "type": "bytes"
            },
            {
              "internalType": "uint256",
              "name": "value",
              "type": "uint256"
            },
            {
              "internalType": "bool",
              "name": "success",
              "type": "bool"
            },
            {
              "internalType": "bytes",
              "name": "returnData",
              "type": "bytes"
            }
          ],
          "internalType": "struct Utilities.BatchOperation[]",
          "name": "optimizedOperations",
          "type": "tuple[]"
        }
      ],
      "stateMutability": "pure",
      "type": "function"
    },
    {
      "inputs": [],
      "name": "owner",
      "outputs": [
        {
          "internalType": "address",
          "name": "",
          "type": "address"
        }
      ],
      "stateMutability": "view",
      "type": "function"
    },
    {
      "inputs": [],
      "name": "renounceOwnership",
      "outputs": [],
      "stateMutability": "nonpayable",
      "type": "function"
    },
    {
      "inputs": [
        {
          "internalType": "address",
          "name": "_contract",
          "type": "address"
        }
      ],
      "name": "revokeContractAuthorization",
      "outputs": [],
      "stateMutability": "nonpayable",
      "type": "function"
    },
    {
      "inputs": [
        {
          "internalType": "address",
          "name": "_token",
          "type": "address"
        },
        {
          "internalType": "address",
          "name": "_to",
          "type": "address"
        },
        {
          "internalType": "uint256",
          "name": "_amount",
          "type": "uint256"
        }
      ],
      "name": "transfer",
      "outputs": [],
      "stateMutability": "payable",
      "type": "function"
    },
    {
      "inputs": [
        {
          "internalType": "address",
          "name": "newOwner",
          "type": "address"
        }
      ],
      "name": "transferOwnership",
      "outputs": [],
      "stateMutability": "nonpayable",
      "type": "function"
    },
    {
      "inputs": [],
      "name": "withdraw",
      "outputs": [],
      "stateMutability": "nonpayable",
      "type": "function"
    },
    {
      "inputs": [
        {
          "internalType": "address",
          "name": "_token",
          "type": "address"
        },
        {
          "internalType": "uint256",
          "name": "_amount",
          "type": "uint256"
        }
      ],
      "name": "withdrawTokens",
      "outputs": [],
      "stateMutability": "nonpayable",
      "type": "function"
    }
  ],
  "bytecode": "0x608060405234801561001057600080fd5b50600160005561001f33610024565b610076565b600180546001600160a01b038381166001600160a01b0319831681179093556040519116919082907f8be0079c531659141344cd1fd0a4f28419497f9722a3daafe3b4186f6b6457e090600090a35050565b611d72806100856000396000f3fe6080604052600436106101665760003560e01c80637eeaa488116100d1578063d4fac45d1161008a578063e1f21c6711610064578063e1f21c6714610496578063ea3a2e0c146104b6578063f08ee22d146104d6578063f2fde38b1461050b57600080fd5b8063d4fac45d14610426578063d5b9221b14610446578063dc768b241461047657600080fd5b80637eeaa488146103055780638da5cb5b14610325578063b775c9301461034d578063beabacc81461038d578063cd481e51146103a0578063cfdbf2541461041157600080fd5b80635b14f183116101235780635b14f183146102495780635f9f85ef1461027957806367561d93146102905780636fd368b0146102b05780637041b48a146102d0578063715018a6146102f057600080fd5b8063032f42df1461016b57806306b091f9146101945780630c9dcbeb146101b657806316279055146101e35780632eda2089146102145780633ccfd60b14610234575b600080fd5b34801561017757600080fd5b5061018161271081565b6040519081526020015b60405180910390f35b3480156101a057600080fd5b506101b46101af36600461173a565b61052b565b005b3480156101c257600080fd5b506101d66101d1366004611764565b6106c0565b60405161018b9190611797565b3480156101ef57600080fd5b506102046101fe3660046117fb565b3b151590565b604051901515815260200161018b565b34801561022057600080fd5b506101b461022f3660046117fb565b6108c2565b34801561024057600080fd5b506101b4610911565b34801561025557600080fd5b506102046102643660046117fb565b60046020526000908152604090205460ff1681565b34801561028557600080fd5b506101816201518081565b34801561029c57600080fd5b506101b46102ab3660046117fb565b610a1c565b3480156102bc57600080fd5b506101b46102cb3660046117fb565b610a6e565b3480156102dc57600080fd5b506101b46102eb3660046117fb565b610afb565b3480156102fc57600080fd5b506101b4610b80565b610318610313366004611904565b610b92565b60405161018b9190611aa2565b34801561033157600080fd5b506001546040516001600160a01b03909116815260200161018b565b34801561035957600080fd5b5061036d61036836600461173a565b610ee9565b60408051948552602085019390935291830152606082015260800161018b565b6101b461039b366004611b56565b610f2f565b3480156103ac57600080fd5b506103f26103bb3660046117fb565b6001600160a01b038116600090815260036020908152604080832054600490925290912054913b15159260ff918216929190911690565b604080519315158452911515602084015215159082015260600161018b565b34801561041d57600080fd5b50610181603281565b34801561043257600080fd5b50610181610441366004611b92565b61114b565b34801561045257600080fd5b506102046104613660046117fb565b60036020526000908152604090205460ff1681565b34801561048257600080fd5b50610318610491366004611904565b6111df565b3480156104a257600080fd5b506101b46104b1366004611b56565b611293565b3480156104c257600080fd5b506101816104d1366004611bc5565b6113a2565b3480156104e257600080fd5b506104f66104f13660046117fb565b61144f565b6040805192835260208301919091520161018b565b34801561051757600080fd5b506101b46105263660046117fb565b61156b565b6105336115e4565b61053b61163e565b6001600160a01b0382166105865760405162461bcd60e51b815260206004820152600d60248201526c24b73b30b634b2103a37b5b2b760991b60448201526064015b60405180910390fd5b600081116105d65760405162461bcd60e51b815260206004820152601d60248201527f416d6f756e74206d7573742062652067726561746572207468616e2030000000604482015260640161057d565b6000826001600160a01b031663a9059cbb6105f96001546001600160a01b031690565b6040516001600160e01b031960e084901b1681526001600160a01b039091166004820152602481018590526044016020604051808303816000875af1158015610646573d6000803e3d6000fd5b505050506040513d601f19601f8201168201806040525081019061066a9190611c1c565b9050806106b15760405162461bcd60e51b8152602060048201526015602482015274151bdad95b881d1c985b9cd9995c8819985a5b1959605a1b604482015260640161057d565b506106bc6001600055565b5050565b6001600160a01b0383166000908152600260209081526040808320805482518185028101850190935280835260609493849084015b8282101561074f5783829060005260206000209060040201604051806080016040529081600082015481526020016001820154815260200160028201548152602001600382015481525050815260200190600101906106f5565b5050825192935050508085106107bd5760408051600080825260208201909252906107b3565b6107a06040518060800160405280600081526020016000815260200160008152602001600081525090565b8152602001906001900390816107755790505b50925050506108bb565b60006107c98587611c4f565b9050818111156107d65750805b6107e08682611c62565b67ffffffffffffffff8111156107f8576107f8611816565b60405190808252806020026020018201604052801561085457816020015b6108416040518060800160405280600081526020016000815260200160008152602001600081525090565b8152602001906001900390816108165790505b509350855b818110156108b65783818151811061087357610873611c75565b60200260200101518588836108889190611c62565b8151811061089857610898611c75565b602002602001018190525080806108ae90611c8b565b915050610859565b505050505b9392505050565b6108ca6115e4565b6001600160a01b0381166108f05760405162461bcd60e51b815260040161057d90611ca4565b6001600160a01b03166000908152600360205260409020805460ff19169055565b6109196115e4565b61092161163e565b47806109685760405162461bcd60e51b81526020600482015260166024820152754e6f2062616c616e636520746f20776974686472617760501b604482015260640161057d565b600061097c6001546001600160a01b031690565b6001600160a01b03168260405160006040518083038185875af1925050503d80600081146109c6576040519150601f19603f3d011682016040523d82523d6000602084013e6109cb565b606091505b5050905080610a0e5760405162461bcd60e51b815260206004820152600f60248201526e15da5d1a191c985dc819985a5b1959608a1b604482015260640161057d565b5050610a1a6001600055565b565b610a246115e4565b6001600160a01b038116610a4a5760405162461bcd60e51b815260040161057d90611ca4565b6001600160a01b03166000908152600360205260409020805460ff19166001179055565b610a766115e4565b6001600160a01b038116610a9c5760405162461bcd60e51b815260040161057d90611ca4565b6001600160a01b03811660009081526004602052604090819020805460ff191690555133907f3fc6beefa3f4115babe1a3d46940222e37b39b9ef03dc7b79f832dbcc3da6abf90610af09042815260200190565b60405180910390a250565b610b036115e4565b6001600160a01b038116610b295760405162461bcd60e51b815260040161057d90611ca4565b6001600160a01b03811660009081526004602052604090819020805460ff191660011790555133907f6eae7d8f48015fddc9502717696ac737bec3d20c703c3958a689f8f48574718390610af09042815260200190565b610b886115e4565b610a1a6000611697565b6060610b9c61163e565b3360009081526004602052604090205460ff1615610bee5760405162461bcd60e51b815260206004820152600f60248201526e10dbdb9d1c9858dd081c185d5cd959608a1b604482015260640161057d565b603282511115610c325760405162461bcd60e51b815260206004820152600f60248201526e426174636820746f6f206c6172676560881b604482015260640161057d565b6000825111610c7c5760405162461bcd60e51b8152602060048201526016602482015275139bc81bdc195c985d1a5bdb9cc81c1c9bdd9a59195960521b604482015260640161057d565b60005a9050825167ffffffffffffffff811115610c9b57610c9b611816565b604051908082528060200260200182016040528015610cd457816020015b610cc16116e9565b815260200190600190039081610cb95790505b50915060005b8351811015610dfb576000848281518110610cf757610cf7611c75565b6020026020010151905060008082600001516001600160a01b03168360400151858951610d249190611c62565b5a610d2f9190611cce565b908560200151604051610d429190611cf0565b600060405180830381858888f193505050503d8060008114610d80576040519150601f19603f3d011682016040523d82523d6000602084013e610d85565b606091505b50915091506040518060a0016040528084600001516001600160a01b031681526020018460200151815260200184604001518152602001831515815260200182815250868581518110610dda57610dda611c75565b60200260200101819052505050508080610df390611c8b565b915050610cda565b5060005a610e099083611c62565b905060026000336001600160a01b03166001600160a01b0316815260200190815260200160002060405180608001604052808381526020013a81526020013a84610e539190611d0c565b8152426020918201528254600180820185556000948552938290208351600490920201908155828201519381019390935560408083015160028501556060909201516003909301929092558551815190815291820183905233917fc0cf3573442e3d273f29985be7b1586d91c1c82120f9f9848bddff016495b8f1910160405180910390a25050610ee46001600055565b919050565b60026020528160005260406000208181548110610f0557600080fd5b60009182526020909120600490910201805460018201546002830154600390930154919450925084565b610f3761163e565b6001600160a01b038216610f815760405162461bcd60e51b8152602060048201526011602482015270125b9d985b1a59081c9958da5c1a595b9d607a1b604482015260640161057d565b60008111610fd15760405162461bcd60e51b815260206004820152601d60248201527f416d6f756e74206d7573742062652067726561746572207468616e2030000000604482015260640161057d565b6001600160a01b0383166110c157803410156110225760405162461bcd60e51b815260206004820152601060248201526f092dce6eaccccd2c6d2cadce8408aa8960831b604482015260640161057d565b6000826001600160a01b03168260405160006040518083038185875af1925050503d806000811461106f576040519150601f19603f3d011682016040523d82523d6000602084013e611074565b606091505b50509050806110bb5760405162461bcd60e51b8152602060048201526013602482015272115512081d1c985b9cd9995c8819985a5b1959606a1b604482015260640161057d565b5061113c565b6040516323b872dd60e01b81523360048201526001600160a01b038381166024830152604482018390528416906323b872dd906064016020604051808303816000875af1158015611116573d6000803e3d6000fd5b505050506040513d601f19601f8201168201806040525081019061113a9190611c1c565b505b6111466001600055565b505050565b60006001600160a01b03831661116c57506001600160a01b038116316111d9565b6040516370a0823160e01b81526001600160a01b0383811660048301528416906370a0823190602401602060405180830381865afa1580156111b2573d6000803e3d6000fd5b505050506040513d601f19601f820116820180604052508101906111d69190611d23565b90505b92915050565b6060815167ffffffffffffffff8111156111fb576111fb611816565b60405190808252806020026020018201604052801561123457816020015b6112216116e9565b8152602001906001900390816112195790505b50905060005b825181101561128d5782818151811061125557611255611c75565b602002602001015182828151811061126f5761126f611c75565b6020026020010181905250808061128590611c8b565b91505061123a565b50919050565b61129b6115e4565b6001600160a01b0383166112e15760405162461bcd60e51b815260206004820152600d60248201526c24b73b30b634b2103a37b5b2b760991b604482015260640161057d565b6001600160a01b0382166113295760405162461bcd60e51b815260206004820152600f60248201526e24b73b30b634b21039b832b73232b960891b604482015260640161057d565b60405163095ea7b360e01b81526001600160a01b0383811660048301526024820183905284169063095ea7b3906044016020604051808303816000875af1158015611378573d6000803e3d6000fd5b505050506040513d601f19601f8201168201806040525081019061139c9190611c1c565b50505050565b60006001600160a01b0384166113eb5760405162461bcd60e51b815260206004820152600e60248201526d125b9d985b1a59081d185c99d95d60921b604482015260640161057d565b60005a845190915061520890600090611405906010611d0c565b9050600080861161141757600061141b565b6123285b61ffff1690506127108161142f8486611c4f565b6114399190611c4f565b6114439190611c4f565b98975050505050505050565b6001600160a01b0381166000908152600260209081526040808320805482518185028101850190935280835284938493929190849084015b828210156114e1578382906000526020600020906004020160405180608001604052908160008201548152602001600182015481526020016002820154815260200160038201548152505081526020019060010190611487565b5050825192935050506000819003611500575060009485945092505050565b6000805b828110156115495783818151811061151e5761151e611c75565b602002602001015160000151826115359190611c4f565b91508061154181611c8b565b915050611504565b50611555600a82611cce565b94506115618286611cce565b9350505050915091565b6115736115e4565b6001600160a01b0381166115d85760405162461bcd60e51b815260206004820152602660248201527f4f776e61626c653a206e6577206f776e657220697320746865207a65726f206160448201526564647265737360d01b606482015260840161057d565b6115e181611697565b50565b6001546001600160a01b03163314610a1a5760405162461bcd60e51b815260206004820181905260248201527f4f776e61626c653a2063616c6c6572206973206e6f7420746865206f776e6572604482015260640161057d565b6002600054036116905760405162461bcd60e51b815260206004820152601f60248201527f5265656e7472616e637947756172643a207265656e7472616e742063616c6c00604482015260640161057d565b6002600055565b600180546001600160a01b038381166001600160a01b0319831681179093556040519116919082907f8be0079c531659141344cd1fd0a4f28419497f9722a3daafe3b4186f6b6457e090600090a35050565b6040518060a0016040528060006001600160a01b031681526020016060815260200160008152602001600015158152602001606081525090565b80356001600160a01b0381168114610ee457600080fd5b6000806040838503121561174d57600080fd5b61175683611723565b946020939093013593505050565b60008060006060848603121561177957600080fd5b61178284611723565b95602085013595506040909401359392505050565b602080825282518282018190526000919060409081850190868401855b828110156117ee578151805185528681015187860152858101518686015260609081015190850152608090930192908501906001016117b4565b5091979650505050505050565b60006020828403121561180d57600080fd5b6108bb82611723565b634e487b7160e01b600052604160045260246000fd5b60405160a0810167ffffffffffffffff8111828210171561184f5761184f611816565b60405290565b604051601f8201601f1916810167ffffffffffffffff8111828210171561187e5761187e611816565b604052919050565b600082601f83011261189757600080fd5b813567ffffffffffffffff8111156118b1576118b1611816565b6118c4601f8201601f1916602001611855565b8181528460208386010111156118d957600080fd5b816020850160208301376000918101602001919091529392505050565b80151581146115e157600080fd5b6000602080838503121561191757600080fd5b823567ffffffffffffffff8082111561192f57600080fd5b818501915085601f83011261194357600080fd5b81358181111561195557611955611816565b8060051b611964858201611855565b918252838101850191858101908984111561197e57600080fd5b86860192505b83831015611a455782358581111561199c5760008081fd5b860160a0818c03601f19018113156119b45760008081fd5b6119bc61182c565b6119c78a8401611723565b8152604080840135898111156119dd5760008081fd5b6119eb8f8d83880101611886565b8c84015250606080850135828401526080915081850135611a0b816118f6565b90830152918301359188831115611a225760008081fd5b611a308e8c85870101611886565b90820152845250509186019190860190611984565b9998505050505050505050565b60005b83811015611a6d578181015183820152602001611a55565b50506000910152565b60008151808452611a8e816020860160208601611a52565b601f01601f19169290920160200192915050565b60006020808301818452808551808352604092508286019150828160051b87010184880160005b83811015611b4857888303603f19018552815180516001600160a01b031684528781015160a089860181905290611b0282870182611a76565b91505087820151888601526060808301511515818701525060808083015192508582038187015250611b348183611a76565b968901969450505090860190600101611ac9565b509098975050505050505050565b600080600060608486031215611b6b57600080fd5b611b7484611723565b9250611b8260208501611723565b9150604084013590509250925092565b60008060408385031215611ba557600080fd5b611bae83611723565b9150611bbc60208401611723565b90509250929050565b600080600060608486031215611bda57600080fd5b611be384611723565b9250602084013567ffffffffffffffff811115611bff57600080fd5b611c0b86828701611886565b925050604084013590509250925092565b600060208284031215611c2e57600080fd5b81516108bb816118f6565b634e487b7160e01b600052601160045260246000fd5b808201808211156111d9576111d9611c39565b818103818111156111d9576111d9611c39565b634e487b7160e01b600052603260045260246000fd5b600060018201611c9d57611c9d611c39565b5060010190565b60208082526010908201526f125b9d985b1a590818dbdb9d1c9858dd60821b604082015260600190565b600082611ceb57634e487b7160e01b600052601260045260246000fd5b500490565b60008251611d02818460208701611a52565b9190910192915050565b80820281158282048414176111d9576111d9611c39565b600060208284031215611d3557600080fd5b505191905056fea2646970667358221220e807b828a2c2c243638d054fdee40ec43b68f7a77527ebe6c8fd147dbc9a777c64736f6c63430008130033",
  "linkReferences": {},
  "deployedLinkReferences": {}
}